:03004300020100B7
:0300530002018027
:100100000223F900023C2700023C270002282800B5
:1001100002263600023C2700023C2700023C270052
:1001200002248A0002251A00023C2700023C270014
:10013000023C2700023C2700023C2700023C27002B
:10014000023C2700023C2700023C2700023C27001B
:10015000023C2700023C2700023C2700023C27000B
:10016000023C2700023C2700023C2700023C2700FB
:10017000023C2700023C2700023C2700023C2700EB
:10018000023C2E00023C2E00023C2E00023C2E00BF
:10019000023C2E00023C2E00023C2E00023C2E00AF
:1001A000023C2E00023C2E00023C2E00023C2E009F
:0801B000023C2E00023C2E006F
:101E0000040309041A0369006400200051007500EE
:101E100061006E00740069007100750065001A03AE
:101E20006900640033003100780078002D00420022
:101E30006F0062002000200012010002FF0000403D
:101E4000DC1D04020001010203010A060002FF007A
:101E50000040010009021900010100C0000904004E
:101E60000001FF0000000705860240000000090293
:101E70001900010100C0000904000001FF0000007A
:101E800007058602000200FF1E00FF1E04FF1E1E43
:101E9000000102020303040405050002040408080B
:041EA0000C0C101006
:0300A300023C27F5
:073C27005391EF75A100327B
:0300AB00023C2EE6
:073C2E005391BF75A20032A3
:0300B300022828F8
:10282800C0E0C0F0C083C082C085C084C086758601
:1028380000C0D075D000C000C001C002C003C004F1
:10284800C005C006C0071200A190E682E044C0F0AF
:1028580090E6817401F043870100000000000053F6
:1028680091EF75A10090E65D7408F0D007D006D00E
:1028780005D004D003D002D001D000D0D0D086D06B
:0C28880084D085D082D083D0F0D0E03224
:03003300022FA1F8
:102FA100C0E0C0F0C083C082C085C084C086758681
:102FB10000C0D075D000C000C001C002C003C00471
:102FC100C005C006C0071200A253D8EFD007D00633
:102FD100D005D004D003D002D001D000D0D0D0860B
:0D2FE100D084D085D082D083D0F0D0E032F3
:10315F008F2A90E6BFE0FE90E6BEE0FDEEF511EDA2
:10316F00F512E52A75F003A4240BF8120AB7E52A25
:10317F00700E90E65F04F090E65EE04401F080147C
:10318F0090E65F7402F090E65EE04402F090E68A0B
:07319F00E4F0A3F0C21922C5
:0400AE008F4EC3228C
:0300BB0002248A92
:10248A00C0E0C0F0C083C082C085C084C0867586A3
:10249A0000C0D075D000C000C001C002C003C00493
:1024AA00C005C006C007C2AF90E68AE0FEA3E0FFFF
:1024BA00C3E5129FF512E5119EF511451270047FCE
:1024CA000180027F00850D82850C83120B1F401745
:1024DA0090E65EE054FEF0750BFF750C00750DAECC
:1024EA0090E6A0E04480F05391EF75A100D2AFD0FE
:1024FA0007D006D005D004D003D002D001D000D036
:10250A00D0D086D084D085D082D083D0F0D0E032AB
:0300C30002251AF9
:10251A00C0E0C0F0C083C082C085C084C086758612
:10252A0000C0D075D000C000C001C002C003C00402
:10253A00C005C006C007C2AF90E68AE0FEA3E0FF6E
:10254A00C3E5129FF512E5119EF511451270047F3D
:10255A000180027F00851082850F83120B1F4017AE
:10256A0090E65EE054FDF0750EFF750F007510AE33
:10257A0090E6A0E04480F05391EF75A100D2AFD06D
:10258A0007D006D005D004D003D002D001D000D0A5
:10259A00D0D086D084D085D082D083D0F0D0E0321B
:100C250090E6B9E0120AF50C48000CC5010D2E033B
:100C35000E27060EF9080F09090F1A0A0F370B00C0
:100C4500000F8C90E6B8E0541F14601B1460292433
:100C5500026003020F8C90E740E4F0A3F090E68A6F
:100C6500F0A37402F0D32290E740E4F0A3F090E6FD
:100C75008AF0A37402F0D32290E6BCE0FF547EFD17
:100C85007C00EFD3948040067E007F0180047E00C7
:100C95007F00EE4CFEEF4D2490F582741E3EF583E9
:100CA500E49324A1FFE434E68F82F583E0540190B8
:100CB500E740F0A3E4F090E68AF0A37402F0D322B3
:100CC50090E6B8E0541F24FE6003020F8C90E6BA4C
:100CD500E06003020F8C90E6BCE0FF604AFE5480A2
:100CE500FD131313541FFDEE540F4D90E683F0E0F2
:100CF5004420F0EF547EFD7C00EFD3948040067EC7
:100D0500007F0180047E007F00EE4CFEEF4D2490B5
:100D1500F582741E3EF583E49324A1FFE434E68F47
:100D250082F583E054FEF0D32290E6B8E0541F2408
:100D3500FE601D24026003020F8C90E6BAE0FFB44A
:100D45000202D322EF64016003020F8CF509D3225E
:100D550090E6BAE06003020F8C90E6BCE0FF7003FA
:100D6500020E25FE5480FD131313541FFDEE540F80
:100D75004D90E683F0E04420F0EF547EFEFD7C00CC
:100D8500EFD3948040067A007B0180047A007B00D3
:100D9500EA4CFCEB4D2490F582741E3CF583E493FC
:100DA50024A1FDE434E68D82F583E04401F090E66C
:100DB500BCE030E735FFEEFD7C00EFD394804006C4
:100DC5007E007F0180047E007F00EE4CFEEF4D2407
:100DD50090F582741E3EF583E49324A1FFE434E686
:100DE5008F82F583E04402F0803690E6BCE0FF5444
:100DF5007EFD7C00EFD3948040067E007F01800459
:100E05007E007F00EE4CFEEF4D249AF582741E3E67
:100E1500F583E493248CFFE434E68F82F583E4F0D4
:100E2500D32290E6BBE024FE6020147003020EB6C8
:100E350024FD604114604F24066003020F8C90E688
:100E4500B3741EF0A37438F0D32290E680E030E747
:100E550012901E6F7402F090E6B3741EF0A3746EC8
:100E6500F08010901E557402F090E6B3741EF0A346
:100E75007454F0D322201802C32290E6B3741EF0F6
:100E8500A3744AF0D32290E680E030E712901E5515
:100E95007407F090E6B3741EF0A37454F0801090BC
:100EA5001E6F7407F090E6B3741EF0A3746EF0D352
:100EB5002290E6BAE0FFC39403501DEF75F003A43A
:100EC5002487F582E4341EF583120AC9AF0190E642
:100ED500B3EAF0A3EFF0801A90E6BAE0FFC00790FE
:100EE500E6BFE0FE90E6BEE0FDEEFCEDD007123673
:100EF5005B22D32290E740E508F090E68AE4F0A370
:100F050004F0D32290E6BAE0FF123AB0507990E6A9
:100F1500BAE0F5082290E6BCE0FFC394015068747E
:100F25000A2FF8E690E740F090E68AE4F0A304F093
:020F3500D322C5
:100F370090E6A2E04402F090E68DE4F0752901E521
:100F4700295480FF131313541FFFE529540F4F90A3
:100F5700E683F0E04420F0E5294480FF5480FE1347
:100F67001313541FFEEF540F4EF0E04420F00529F1
:100F7700E529B408CA90E6BAE0FF90E6BCE0240A87
:050F8700F8A607D322CB
:020F8C00C3227E
:0300CB00022636D4
:10263600C0E0C0F0C083C082C085C084C0867586F5
:1026460000C0D075D000C000C001C002C003C004E5
:06265600C005C006C0072C
:10265C0090E68AE4F090E690F090E694F090E6989C
:10266C00F090E69CF0F508F509FF7F01780AE4F696
:10267C0008DFFC750BFF750C00750DAE750EFF7544
:10268C000F007510AE1200B65391EF75A10090E6D5
:04269C005D7410F069
:1026A000D007D006D005D004D003D002D001D0008E
:1026B000D0D0D086D084D085D082D083D0F0D0E066
:0126C00032E7
:0300D3000223F90C
:1023F900C0E0C0F0C083C082C085C084C086758635
:1024090000C0D075D000C000C001C002C003C00424
:06241900C005C006C0076B
:10241F00752881C2AF90E65EE054FEF0E054FDF007
:10242F00D21990E6B8E0546024C0600E24407012B8
:10243F00120C25500D7528808008121EA4500375AC
:10244F00288030190790E6A0E04528F05391EF75EA
:0A245F00A10090E65D7401F0D2AF19
:10246900D007D006D005D004D003D002D001D000C7
:10247900D0D0D086D084D085D082D083D0F0D0E09F
:012489003220
:103A9800123B2C90E680E04408F0123B2C90E68024
:083AA800E04402F0123B2C2265
:103B1A007FE87E031200D690E680E054F7F0123B6D
:023B2A002C224B
:102A2D00123A98123B1A90E6827404F090E680E018
:102A3D004402F0538EF890E68AE4F090E690F09020
:102A4D00E694F090E698F090E69CF0F508F509FF15
:102A5D007F01780AE4F608DFFC750BFF750C007535
:102A6D000DAE750EFF750F007510AE90E668E04463
:102A7D000BF090E65CE04419F053D8EF43D820D228
:012A8D00E860
:012A8E002225
:1021C8000D5265736574204658320D3D3D3D200023
:1021D800203D3D3D0D00436F70797269676874203A
:1021E800284329206964205175616E746971756589
:1021F8002E20416C6C207269676874207265736563
:10220800727665642E204669726D776172652070FA
:10221800726F707269657461727920746F20696475
:10222800205175616E74697175652E20436F7079E0
:10223800696E67206F72206F7468657220757365A8
:10224800206F6620746865206669726D77617265B3
:102258002070726F6772616D206578636570742095
:10226800617320657870726573736C792061757419
:10227800686F72697A6564206279204944205175D3
:10228800616E74697175652069732070726F686911
:1022980062697465642E006964333130302D426F91
:1022A80062202F204A616E203134203230313420B0
:0B22B8002F2031333A33343A31330029
:1034B1008B298A2A892BAB2CAA2DA92E12084C60A4
:1034C1001C782CE475F001120AA712084CFF782928
:1034D100E475F001120AA7EF12088780D9AB29AA77
:0834E1002AA92BE4120887223E
:103B2C000000000000000000000000000000000089
:013B3C002266
:10296400123B2C90E60274E8F0123B2CA3E4F01224
:102974003B2C90E609F0123B2C123B2C90E612748F
:10298400A0F0123B2C90E61474E0F0123B2C123BA6
:102994002C90E6047480F0123B2C7402F0123B2C51
:1029A4007406F0123B2CE4F0123B2C123B2C90E604
:1029B4001804F0123B2C7411F0123B2C90E61A749C
:0629C4000DF0123B2C2275
:1028940090E600E054DFF090E6707402F0E4F58016
:1028A40075B289A3F0F5A0F5B4A37410F0E4F5B102
:1028B40075B61690E600E04422F075C022123B2C57
:1028C400A37403F0123B2C90E680E030E714123B33
:1028D4002C90E6247402F0123B2CA3E4F0123B2C5F
:1028E4008012123B2C90E624E4F0123B2CA374409B
:0828F400F0123B2C12296422B2
:0B3BBD0090E601E4F0D28053B2FE223B
:0100A100223C
:0100A200223B
:103AC70090E6007432F0123B2C90E60B7401F01272
:053AD7003B2CD2182277
:0400B600123AC72211
:103AB000EF14600A04700EC217123BBDD322122805
:073AC00094D217D322C322A8
:1035F5008F2978C2E6FE08E6FF7B017AE7794090DD
:10360500E68BE0F52F12368D90E68BE078C326F633
:1036150018E436F6E5296002C32290E68AE4F0A3B1
:03362500F0D322BD
:0229CA008F2953
:1029CC0090E68BE0F52AE4F52BE52AD394004042FF
:1029DC00E52AD3942040047F208002AF2A8F2C78E4
:1029EC00C2E6FE08E6FFE52B2440FDE434E7FAA935
:1029FC00057B01852C3212327478C3E52C26F6182F
:102A0C00E436F6E52C252BF52BC3E52A952CF52A77
:102A1C0080B7E5296002C32290E68AE4F0A3F0D3E4
:012A2C002287
:061538008B2C8A2D892E88
:10153E00E4789CF678C1E61846700576240876594C
:10154E0078C0E6FE08E6FF789AA60608A607AB2C3A
:10155E00AA2DA92E08E606F582758300E4120899D5
:10156E00789CE606F5827583007403120899789CC0
:10157E00E606F5827583007456120899789CE60685
:10158E00F582758300E4120899789CE606F582755B
:10159E0083007445120899789CE606F582758300DF
:1015AE00E4120899789CE606F5827583007443125E
:1015BE000899789CE606F582758300E412089978FE
:1015CE009CE606F582758300742D120899789CE6C8
:1015DE0006F582758300E4120899789AE6FE08E60D
:1015EE00FF7C277D101208BBEF2430FFAB2CAA2DF9
:1015FE00A92E789CE606F582758300EF120899787D
:10160E009AE6FE08E6FF7C277D101208BB789AA6A4
:10161E000408A605AB2CAA2DA92E08E606F58275A0
:10162E008300E4120899789AE6FE08E6FF7C037DB3
:10163E00E81208BBEF2430FFAB2CAA2DA92E789C04
:10164E00E606F582758300EF120899789AE6FE0891
:10165E00E6FF7C037DE81208BB789AA60408A6056F
:10166E00AB2CAA2DA92E08E606F582758300E4128E
:10167E000899789AE6FE08E6FF7C007D641208BBA6
:10168E00EF2430FFAB2CAA2DA92E789CE606F5820E
:10169E00758300EF120899789AE6FE08E6FF7C0043
:1016AE007D641208BB789AA60408A605AB2CAA2D59
:1016BE00A92E08E606F582758300E4120899789A39
:1016CE00E6FE08E6FF7C007D0A1208BBEF2430FF21
:1016DE00AB2CAA2DA92E789CE606F582758300EF19
:1016EE00120899789AE6FE08E6FF7C007D0A120839
:1016FE00BB789AECF608EDF6AB2CAA2DA92E08E6CF
:10170E0006F582758300E4120899AF05EF2430FFC9
:10171E00789CE606F582758300EF120899789CE6B0
:10172E0006F582758300E4120899789CE612088704
:02173E00E6FFC4
:011740002286
:04365B008C2A8D2BFD
:10365F00EF640370277B017AE77940121538789968
:10366F00EFF67E00C3952BEE952A50028004AE2A0A
:0D367F00AF2B90E68AEEF0A3EFF0D322C34C
:01368C00221B
:103A7F0078C4760608764078C408E616188606706D
:083A8F0001164E60030080EFF8
:013A9700220C
:101EA40090E6B8E020E703021F44121921500122F2
:101EB400122365500122122C6A50012290E6B9E0E7
:101EC40024A860252498601124E0603A2456706E9A
:101ED40090E68AE4F0A3F0D32290E740E4F0F09097
:101EE400E68AF0A37402F0D322752CFF752D2275B7
:101EF4002E9F7B017AE779401234B190E68AE4F0B0
:101F0400A37424F0D32290E6BDE0FE90E6BCE0FD8D
:101F1400EEEDFF7B017AE7794090E6BFE0FD90E6C5
:101F2400BEE0F52E1226C190E6BFE0FE90E6BEE0CC
:101F3400FDEEEDFF90E68AEEF0A3EFF0D322C3228C
:101F4400121AA0500122122AF0500122123ADC5037
:101F5400012290E6B9E024FE60112441601C24E0D3
:101F6400601A1460352459704FD3227F02123B7BD0
:101F7400E4FF123B7B122964D322D32290E6BDE016
:101F8400FE90E6BCE0FDEE78C2F6ED08F67BFF7A43
:101F94003579F57F0112315FD32290E6BDE0FE90E2
:101FA400E6BCE0FDEE78C2F6ED08F67BFF7A29790F
:0A1FB400CA7F0112315FD322C3225D
:073C3500E478C0F608F62256
:102CC300123AC7123C35122A2D123C43122894D2D1
:102CD300AF123B4E122F05123BF27FF312362853ED
:102CE300B1FB53B1FD7BFF7A2179C8120FF07BFF53
:102CF3007A22799F120FF07BFF7A2179D8120FF095
:102D030090E680E030E70853B1FD43B10480F1530E
:082D1300B1FB43B10280E9228B
:0500800003B7000000C1
:0633FD008B298A2A892BAE
:10340300E4120887AB29AA2AA92B7D017F52123B1C
:103413003D9200AB29AA2AA92B7D027F20123B3DB6
:1034230082009200AB29AA2AA92B7D047F48123B74
:073433003D82009200A2009F
:01343A00226F
:0F3B4E007F20123BFC7F48123521E478BAF62223
:0D3B970043B62053B1DF53B6DF43B1202207
:102EB7008F2AC28043B20178B7120A9EE978B626F4
:102EC700FDEA1836FC90E68AE0FAA3E0FB753201CA
:102ED7007533E77534407F52123083D28053B2FE88
:102EE700E52A6002C32290E68AE0FEA3E078B626D0
:0E2EF700F618EE36F690E68AE4F0A3F0D32249
:1039D6008F2A7B017AE7794090E68BE0FD123BA4C3
:0F39E600E52A6002C32290E68AE4F0A3F0D32220
:021D15008F2A13
:101D170090E743E0D3940340012290E743E0C454A3
:101D2700F07899F6E62416FF90E747E0FD123A654A
:101D37007899E62417FF90E746E0FD123A6578990F
:101D4700E62418FF90E745E0FD123A657899E62406
:101D570012FF90E74BE0FD123A657899E62413FFEE
:101D670090E74AE0FD123A657899E62419FF90E773
:101D77004FE0FD123A657899E6241AFF90E74EE0A6
:101D8700FD123A657899E6241BFF90E74DE0FD12B6
:101D97003A657899E62415FF90E753E0FD123A6516
:101DA7007899E62414FF90E757E0FD123A65789991
:101DB700E62410FF90E75BE0FD123A657899E62488
:101DC70011FF90E75AE0FD123A6590E68AE4F0A326
:021DD700F0C357
:011DD90022E7
:1036BD008F2AC28043B20178B7120A9EE92420F9FD
:1036CD00EA3408FCAD017532017533E77534407B82
:0F36DD00087A007F52123083D28053B2FEC3228C
:1019210090E6B9E0120AF51A1741198C461A2B47AD
:101931001A7255194D8619DE9119C89219FD951A19
:101941003F9C19BBF219A1F300001A9E90E6BDE07D
:10195100FE90E6BCE0FDEEFCED90E6BFE0FE90E619
:10196100BEE0FBEEFAEB7553017554E77555407F08
:10197100521231A690E6BFE0FE90E6BEE0FDEEED2C
:10198100FF90E68AEEF0A3EFF0D32290E740120A2F
:101991006D07270E0090E68AE4F0A37404F0D322C9
:1019A100E5B130E7047F0180027F0090E740EFF06E
:1019B10090E68AE4F0A304F0D32212385090E68A2C
:1019C100E4F0A3EFF0D3227B017AE779407F48125C
:1019D100343B90E68AE4F0A37402F0D3227F8612AE
:1019E1003AF190E740EFF07F87123AF190E741EF4B
:1019F100F090E68AE4F0A37402F0D3227B017AE747
:101A010079407DF07C0F7F201220CA90E68AE4F0B5
:101A1100A37410F0D3227F82123AF190E740EFF0E5
:101A210090E68AE4F0A304F0D3227F80123AF19089
:101A3100E740EFF090E68AE4F0A304F0D3227FDFE1
:101A4100123AF190E743EFF07FDE123AF190E7426C
:101A5100EFF07FDD123AF190E741EFF07FDC123ACF
:101A6100F190E740EFF090E68AE4F0A37404F0D33C
:101A71002278B7120A9EE92420F9EA3408FCAD0164
:101A81007553017554E77555407B087A007F5212F2
:0F1A910031A690E68AE4F0A37408F0D322C322B2
:101AA00090E6B9E0120AF51B2D421B6D431B7A44E8
:101AB0001AE5451BD4481AF6491B4D4A1BAC4B1A74
:101AC000FB501BE4541AD2851B1BF01B20F10000B5
:101AD0001BF1E478B5F608F67BFF7A2E79B77F0123
:101AE00012315FD32290E6BBE0FF90E6BAE0FD7FC3
:101AF00001123A65D322123B97D32290E6BCE0FD57
:101B00007F53123A6590E6BDE0FD7F54123A65902E
:101B1000E6BAE0FD7F55123A65D3221235C1D322D1
:101B20007BFF7A3979D67F0112315FD32290E6BCF0
:101B3000E0FD7F50123A6590E6BDE0FD7F51123A1C
:101B40006590E6BAE0FD7F52123A65D32290E6BC7A
:101B5000E0FD7F4D123A6590E6BDE0FD7F4E123A02
:101B60006590E6BAE0FD7F4F123A65D3227BFF7A9B
:101B70001D79157F0112315FD32290E6BAE030E083
:041B8000031234E92F
:101B84001200A68F2990E6BBE0FE90E6BAE0FDEED7
:101B9400ED30E00AE5294401FF123B7B8008E5298A
:061BA40054FEFF123B7B22
:021BAA00D32244
:101BAC001200A68F2990E6BBE0FE90E6BAE0FDEEAF
:101BBC00ED30E00AE5294404FF123B7B8008E5295F
:061BCC0054FBFF123B7BFD
:101BD200D3227D017F02123A65E4FD7F02123A654B
:101BE200D3227BFF7A3679BD7F0112315FD322C3C4
:011BF20022D0
:0E3B7B008F2AAD2AE4FF123A6578BAA62A22F4
:0500A60078BAE6FF221C
:0500850003B2000000C1
:062DCA008B298A2A892BE7
:102DD000E4120887AB29AA2AA92B7D017F53123B55
:102DE0003D9200AB29AA2AA92B7D027F49123B3DC7
:102DF00082009200AB29AA2AA92B7D047F30123BC6
:102E00003D82009200AB29AA2AA92B7D087F40129F
:082E10003B3D82009200A2008C
:012E18002297
:102F05007F401200BE7F4912352112393378AAE677
:102F1500FA08E6FBE4FD7F307E01122F5378ACE61C
:102F2500FA08E6FB7D017F307E01122F5378AEE66D
:102F3500FA08E6FB7D027F307E01122F5378B0E65A
:0E2F4500FA08E6FB7D037F307E01122F532237
:1039330078B2120A9EE429F9EA3408FCAD01755302
:10394300007554007555AA7B087A007F531231A67F
:013953002251
:1039540078B2120A9EE429F9EA3408FCAD01753202
:10396400007533007534AA7B087A007F53123083C4
:013974002230
:1031EC008F2978B2120A9EE978A926FDEA1836FCD6
:1031FC0090E68AE0FAA3E0FB7532017533E775348B
:10320C00407F53123083E5296002C32290E68AE0A6
:10321C00FEA3E078A926F618EE36F690E68AE4F0DE
:04322C00A3F0D32216
:1038EB008E298F2A8C2B8D2CEF25E024AAF8A62B62
:1038FB0008A62C123954AD2AAB2CAA2B7F307E0193
:04390B00122F532202
:1023650090E6B9E024CE604914605C24A5600302C0
:1023750023F790E6BDE0FE90E6BCE0FDEEFCED90B7
:10238500E6BFE0FE90E6BEE0FBEEFAEB75530175A5
:1023950054E77555407F531231A690E6BFE0FE9095
:1023A500E6BEE0FDEEEDFF90E68AEEF0A3EFF0D39A
:1023B500227B017AE779407F4912343B90E68AE433
:1023C500F0A37402F0D32278B2120A9EE429F9EA46
:1023D5003408FCAD017553017554E77555407B080C
:1023E5007A007F531231A690E68AE4F0A37408F0D0
:0423F500D322C3220A
:102AF00090E6B9E024DD604224F2601724A4704E11
:102B0000E478A8F608F67BFF7A3179EC7F01123180
:102B10005FD32290E6BDE0FE90E6BCE0FDEEEDFF67
:102B2000C006C00790E6BBE0FE90E6BAE0FDEEFC12
:102B3000EDD007D0061238EBD32290E6BBE0FF9031
:102B4000E6BAE0FD7F75123A65122964D322C322EA
:05008A0003BB000000B3
:062E19008B298A2A892B97
:102E1F00E4120887AB29AA2AA92B7D017F55123B03
:102E2F003D9200AB29AA2AA92B7D027F22123B3D9E
:102E3F0082009200AB29AA2AA92B7D047F28123B7E
:102E4F003D82009200AB29AA2AA92B7D087F2E1262
:082E5F003B3D82009200A2003D
:012E67002248
:063C4A007F22123C17224C
:103230008F2978BB120A9EE978BF26FDEA1836FC72
:1032400090E68AE0FAA3E0FB7532017533E7753446
:10325000407F55123083E5296002C32290E68AE060
:10326000FEA3E078BF26F618EE36F690E68AE4F084
:04327000A3F0D322D2
:10358D008F2990E740E06411600EE064216009E04E
:10359D0064616004E0B4510D90E740E0FFA3E0FDED
:1035AD0012371B800D90E740E0B4FF06A3E0FF1239
:0435BD0038C6C32227
:10274C0090E6B9E0246A604C240E706090E6BDE01F
:10275C00FE90E6BCE0FDEEFCED90E6BFE0FE90E600
:10276C00BEE0FBEEFAEB7553017554E77555407FEF
:10277C00551231A690E6BFE0FE90E6BEE0FDEEED10
:10278C00FF90E68AEEF0A3EFF0752901752AE77544
:10279C002B40D3227B017AE779407DF07F221222F5
:0D27AC00C390E68AE4F0A37408F0D322C3C2
:0127B90022FD
:10374A0090E6B9E02479601124F370207BFF7A3582
:10375A00798D7F0112315FD322E478BEF608F67BB9
:0E376A00FF7A3279307F0112315FD322C32201
:06008F0043E00800000040
:0A3BDE00123BB1123BE8123A4B22F1
:062B50008B298A2A892B63
:102B5600E4120887AB29AA2AA92B7D017F54123BD0
:102B66003D9200AB29AA2AA92B7D027F21123B3D6B
:102B760082009200AB29AA2AA92B7D047F3D123B35
:102B86003D82009200AB29AA2AA92B7D087F351227
:102B96003B3D82009200AB29AA2AA92B7D107F25F6
:092BA600123B3D82009200A200E6
:012BAF002203
:103039008F2990E008120AC090E044E029FD90E051
:1030490043E03AFC90E68AE0FAA3E0FB75320175A9
:1030590033E77534407F54123083E5296002C32277
:1030690090E68AE0FEA3E0FF90E043EE8FF01209BC
:0A3079001090E68AE4F0A3F0D322E1
:0A3BE800C2151234E9D2AAD28A22D3
:1034E900E490E004F0A3F090E040F0A3F0A3F090A2
:1034F900E01F120A6D0000000090E023120A6D001F
:1035090000000090E029120A6D0000000090E035EB
:08351900120A6D0000000022FF
:0300130002174190
:10174100C0E0C0F0C083C082C085C084C0867586F9
:1017510000C0D075D000C000C001C002C003C004E9
:06176100C005C006C00730
:10176700C2AFC28B7F80123AF1EF13921630163E4A
:1017770020153B90E004E4F0A304F090E040E4F08F
:10178700A3F0A3F090E01F120A6D0000000090E0A4
:1017970023120A6D0000000090E029120A6D000074
:1017A700000090E035120A6D0000000080653016D9
:1017B7000F30150C90E004E475F001120910805306
:1017C7007F92123AF190E040EFF07F91123AF19058
:1017D700E041EFF07F90123AF190E042EFF02016EF
:1017E7003220152F90E004E4F0A3F090E01F120AD6
:1017F7006D0000000090E023120A6D0000000090C9
:10180700E029120A6D0000000090E035120A6D0011
:1018170000000090E057E4F07FCA123AF190E058D8
:10182700EFF07FC9123AF190E059EFF07FC8123A12
:10183700F190E05AEFF090E01F120A4990E057123A
:101847000A5512097090E01F120A6190E057E4F000
:101857007FCE123AF190E058EFF07FCD123AF19037
:10186700E059EFF07FCC123AF190E05AEFF090E0B8
:1018770023120A4990E057120A5512097090E02383
:10188700120A6190E057E4F07FC6123AF190E058EF
:10189700EFF07FC5123AF190E059EFF07FC4123AAA
:1018A700F190E05AEFF090E029120A4990E05712C0
:1018B7000A5512097090E029120A6190E057E4F086
:1018C7007FC2123AF190E058EFF07FC1123AF190DF
:1018D700E059EFF07FC0123AF190E05AEFF090E054
:1018E70035120A4990E057120A5512097090E035EF
:0918F700120A61A2169215D2AF8B
:10190000D007D006D005D004D003D002D001D0003B
:10191000D0D0D086D084D085D082D083D0F0D0E013
:011920003294
:0C3BB1007F21123C17122BB01228FC22BE
:1028FC00E490E027F0A3F090E000120A6D000000D5
:10290C000090E02D120A6D0000000090E00B120AFE
:10291C006D00000000E490E04DF0A3F090E03C125C
:10292C000A6D0000000090E031120A6D00000000FA
:10293C00E4FD7F6D123A6590E006E07004A3E0645C
:10294C009B700AD21390E03904F0C21422C2139087
:08295C00E03974FFF0D21422EF
:103A3000C213E490E04DF0A3F0FBFAFD7F3D7E0160
:0B3A4000122F53E4FD7F6D123A652247
:0E3B89007B017AE079177DF07F211222C322A2
:102BB00090E008120AC0E429F9EA3408FCAD017576
:102BC00053017554E075556B7B087A007F541231C0
:102BD000A690E06BE0FFA3E090E04BCFF0A3EFF016
:102BE00090E06DE0FFA3E090E03ACFF0A3EFF0902B
:102BF000E06FE0FFA3E090E045CFF0A3EFF090E0BE
:0D2C000071E0FFA3E090E006CFF0A3EFF03D
:012C0D0022A4
:102D1B0090E04BE0FFA3E090E04FCFF0A3EFF090FB
:102D2B00E03AE0FFA3E090E051CFF0A3EFF090E0AA
:102D3B0045E0FFA3E090E053CFF0A3EFF0A3E4F066
:102D4B00A3749BF090E008120AC0E429F9EA340856
:102D5B00FCAD017532017533E075344F7B087A0099
:072D6B007F54123083920037
:012D7200223E
:102FEE008F2990E740E0FEA3E07C002400FFEC3E3A
:102FFE0090E04BF0A3EFF090E742E0FEA3E0240058
:10300E00FFEC3E90E03AF0A3EFF090E744E0FEA331
:10301E00E02400FFEC3E90E045F0A3EFF090E006D8
:0B302E00E4F0A3749BF0122D1BC322E2
:1001B800123B899205301442D390E04EE0940890A7
:1001C800E04DE09400402F74FF75F0F8120910908C
:1001D800E04EE0C4F8540FC868FB90E04DE0C4540A
:1001E800F048FAE4FD7F3D7E01122F53C213E4FD6F
:1001F8007F6D123A6522123A302220130302084B0F
:1002080020050890E03974FEF0803ED390E018E0B5
:1002180094A090E017E0940F400890E03974FDF046
:10022800802790E019E0FEA3E0FFD394A0EE940F9E
:10023800400890E03974FCF0800FC3EF94B0EE945E
:1002480004500690E03974FBF090E039E030E703A1
:10025800D2142290E067120A6D0000000F90E03C73
:10026800120A49EC4D4E4F60030205F590E017E085
:10027800FEA3E0FFE4FCFD7804120A3690E0471282
:100288000A61E47F0FFEFDFC90E031120A55120965
:100298008B90E047120A551209707804120A0F90E1
:1002A800E031120A6190E046E0C4F8540FC868FFD4
:1002B80090E045E0C454F048FEE4FCFDC004C005ED
:1002C800C006C00790E031120A49AB07AA06A90583
:1002D800A804D007D006D005D00412097D90E05BB1
:1002E800120A6190E039E060741460030203CDE4FF
:1002F8007F407E01FDFC90E05B120A55D31209E8AD
:1003080050147FC07EFE7DFF7CFF90E05B120A5593
:10031800C31209E85026C390E028E094E190E02752
:10032800E09410500AE475F0041209100203CD900D
:10033800E0277410F0A374E1F00203CDD390E02815
:10034800E0940190E027E09400400974FFF5F01272
:1003580009108071E490E027F0A3F08068E47F70D2
:10036800FEFDFC90E05B120A55D31209E8501374A5
:10037800FF7F90FEFDFC90E05B120A55C31209E86E
:100388005024C390E028E094E190E027E0941050D6
:1003980009E475F004120910802B90E0277410F01E
:1003A800A374E1F0801FD390E028E0940190E02747
:1003B800E09400400974FFF5F01209108007E490FA
:1003C800E027F0A3F090E02D120A55C000C001C04C
:1003D80002C003E47F06FEFDFC90E05F120A55129E
:1003E800098BE47B0AFAF9F81232B8A804A905AA1D
:1003F80006AB0790E05B120A4912097DD003D002D0
:10040800D001D00012097090E02D120A6190E04BE3
:10041800E0FEA3E0FFE4FCFD7BB87A0BF9F81209D3
:100428008B7805120A3690E02D120A55D31209E886
:10043800402190E04BE0FEA3E0FFE4FCFD7BB87AAE
:100448000BF9F812098B7805120A3690E02D120A7A
:1004580061804990E04BE0FEA3E0FFE4FCFD7B48AF
:100468007AF479FF78FF12098B7805120A3690E042
:100478002D120A55C31209E8502290E04BE0FEA362
:10048800E0FFE4FCFD7BB87A0BF9F812098B7805DC
:10049800120A361209DA90E02D120A6190E05B1216
:1004A8000A4990E05F120A6190E04BE0FEA3E0FF8A
:1004B800E4FCFD90E02D120A5512098BC004C0051A
:1004C800C006C00790E03AE0FEA3E0FFE4FCFD9020
:1004D800E05B120A5512098BD003D002D001D0007C
:1004E800120970780B120A2290E063120A61E47F05
:1004F800E47E0CFDFC90E063120A55D31209E84033
:100508000C90E063120A6D00000CE4801490E06324
:10051800120A49EC33500A90E063120A6D00000099
:100528000090E04DE0FEA3E0FFE4FCFD90E06312E4
:100538000A55C31209E8504B90E04DE0FEA3E0FFD6
:10054800C39408EE94005009E490E04DF0A3F080C5
:1005580032EF24F8FFEE34FFFEE4FCFD90E0631276
:100568000A55C31209E8500D90E04D74FF75F0F874
:10057800120910800E90E063120A4990E04DEEF0E7
:10058800A3EFF090E04DE0FEA3E0FFE4FCFD90E077
:1005980063120A55D31209E8403790E04EE0240868
:1005A800FF90E04DE03400FEE4FCFD90E063120AA9
:1005B80055D31209E8400C90E04DE475F008120993
:1005C80010800E90E063120A4990E04DEEF0A3EF20
:1005D800F090E03C120A49EF2401FFE43EFEE43DBE
:1005E800FDE43CFC90E03C120A6102078C90E06755
:1005F800120A4990E03C120A55C31209E8400D90CE
:10060800E03C120A6D0000000002078C90E046E012
:10061800C4F8540FC868FF90E045E0C454F048FEA1
:10062800E4FCFDC004C005C006C00790E031120A12
:1006380049AB07AA06A905A804D007D006D005D05B
:100648000412097D90E05B120A6190E039E01470B1
:100658006AE47F407E01FDFC90E05B120A55D312EC
:1006680009E850147FC07EFE7DFF7CFF90E05B129E
:100678000A55C31209E85024C390E028E094E19099
:10068800E027E094105009E475F004120910802B5B
:1006980090E0277410F0A374E1F0801FD390E02855
:1006A800E0940190E027E09400400974FFF5F0120F
:1006B80009108007E490E027F0A3F090E04DE0FEF9
:1006C800A3E0FFE4FCFD90E063120A55C31209E8B9
:1006D800504B90E04DE0FEA3E0FFC39408EE940079
:1006E8005009E490E04DF0A3F08032EF24F8FFEEDB
:1006F80034FFFEE4FCFD90E063120A55C31209E8DA
:10070800500D90E04D74FF75F0F8120910800E90AE
:10071800E063120A4990E04DEEF0A3EFF090E04D4F
:10072800E0FEA3E0FFE4FCFD90E063120A55D3125B
:1007380009E8403790E04EE02408FF90E04DE034AF
:1007480000FEE4FCFD90E063120A55D31209E8406C
:100758000C90E04DE475F008120910800E90E063EB
:10076800120A4990E04DEEF0A3EFF090E03C120A37
:1007780049EF2401FFE43EFEE43DFDE43CFC90E04B
:100788003C120A6190E04EE0C4F8540FC868FB9030
:10079800E04DE0C454F048FAE4FD7F3D7E01122F9D
:1007A8005390E039E0700302084B146003020843D9
:1007B80090E000120A49EF2401FFE43EFEE43DFD0B
:1007C800E43CFC90E000120A6190E000120A49EF54
:1007D800C45401FD7F6D123A657F407E197D017C0E
:1007E8000090E000120A55C31209FE501B90E02841
:1007F800E0940290E027E094005048E490E039F05B
:100808007D027F6D123A65227F407E197D017C0052
:1008180090E000120A55C31209FE4027D390E02841
:10082800E0940290E027E09400401890E03974FAD0
:10083800F0E4FD7F6D123A65D2142290E03974F924
:03084800F0D214D7
:01084B00228A
:103A4B00E490E013F0A3F090E00FF0A3F090E015FA
:0A3A5B00F0A3F090E011F0A3F022B8
:101FBE0090E039E0603D90E00FE07002A3E0601227
:101FCE00E4FBFAFD7F357E01122F53E490E00FF013
:101FDE00A3F090E011E07002A3E070030220C9E4C8
:101FEE00FBFA7D017F357E01122F53E490E011F054
:101FFE00A3F02290E013E0FCA3E0FD90E00FE0FEE2
:10200E00A3E0FF6D7002EE6C604DE4EF2433FBEE47
:10201E003403FAE433F9E433F890E013E0FEA3E07E
:10202E00FFE4FCFDC31209E8500D90E00F74037538
:10203E00F033120910800F90E013E0FFA3E090E060
:10204E000FCFF0A3EFF090E00FE0FAA3E0FBE4FD7A
:10205E007F357E01122F5390E015E0FCA3E0FD903A
:10206E00E011E0FEA3E0FF6D7002EE6C604DE4EF58
:10207E002433FBEE3403FAE433F9E433F890E0153D
:10208E00E0FEA3E0FFE4FCFDC31209E8500D90E072
:10209E0011740375F033120910800F90E015E0FFF4
:1020AE00A3E090E011CFF0A3EFF090E011E0FAA3DF
:0C20BE00E0FB7D017F357E01122F5322D4
:10337E008F2990E743E0FD7F58123A6590E742E0CF
:10338E00FD7F59123A6590E741E0FD7F5A123A658A
:10339E0090E747E0FD7F5C123A6590E746E0FD7FDF
:1033AE005D123A6590E745E0FD7F5E123A65C322F5
:1012EA0090E6B9E024CA605914700302143C1470E1
:1012FA000302140424E170030214CD24CD60030216
:10130A00153690E6BDE0FE90E6BCE0FDEEFCED9001
:10131A00E6BFE0FE90E6BEE0FBEEFAEB7553017520
:10132A0054E77555407F541231A690E6BFE0FE900F
:10133A00E6BEE0FDEEEDFF90E68AEEF0A3EFF0D315
:10134A002290E039E070097D027F6D123A658007CC
:10135A00E4FD7F6D123A65A213E43390E740F09002
:10136A00E039E090E741F090E017E0FFA3E090E772
:10137A0042CFF0A3EFF090E019E0FFA3E090E7443A
:10138A00CFF0A3EFF090E045E0FFA3E090E746CF6F
:10139A00F0A3EFF090E01BE0FFA3E090E748CFF066
:1013AA00A3EFF090E01DE0FFA3E090E74ACFF0A39F
:1013BA00EFF090E04DE0FFA3E090E74CCFF0A3EF11
:1013CA00F090E000120A4990E74EEEF0A3EFF09099
:1013DA00E027E0FFA3E090E750CFF0A3EFF0A3E40B
:1013EA00F0A3F090E02D120A4990E754120A619096
:1013FA00E68AE4F0A37418F0D32290E04BE0FFA34E
:10140A00E090E740CFF0A3EFF090E03AE0FFA3E0EE
:10141A0090E742CFF0A3EFF090E045E0FFA3E09021
:10142A00E744CFF0A3EFF090E68AE4F0A37406F065
:10143A00D32290E740E4F07FCA123AF190E741EFF5
:10144A00F07FC9123AF190E742EFF07FC8123AF101
:10145A0090E743EFF0A3E4F07FCE123AF190E7452C
:10146A00EFF07FCD123AF190E746EFF07FCC123AD7
:10147A00F190E747EFF0A3E4F07FC6123AF190E764
:10148A0049EFF07FC5123AF190E74AEFF07FC412B4
:10149A003AF190E74BEFF0A3E4F07FC2123AF190F1
:1014AA00E74DEFF07FC1123AF190E74EEFF07FC0BF
:1014BA00123AF190E74FEFF090E68AE4F0A3741045
:1014CA00F0D32290E004E0FEA3E0FFE4FCFD90E705
:1014DA0040120A6190E744E4F090E040E090E7456A
:1014EA00F090E041E090E746F090E042E090E74774
:1014FA00F090E01F120A4990E748120A6190E0232F
:10150A00120A4990E74C120A6190E029120A49909E
:10151A00E750120A6190E035120A4990E754120A1C
:0E152A006190E68AE4F0A37418F0D322C32285
:101BF30090E6B9E0120AF51C33341C40351C5851E9
:101C03001C65521CFD591C1F891C89971C9D981C1F
:101C1300B4991CCD9A1CE49B00001D13E490E0438F
:101C2300F0A3F07BFF7A3079397F0112315FD32241
:101C33007BFF7A2F79EE7F0112315FD32290E6BBCF
:101C4300E0FE90E6BAE0FDEEED4E60051228FC8062
:101C530002D214D3227BFF7A33797E7F0112315F64
:101C6300D32290E6BBE0FF90E6BAE0FD7F60123A34
:101C73006590E6BBE0FE90E6BAE0FDEEEDEEFD7F9B
:101C830061123A65D32290E6BBE0FE90E6BAE0FD2E
:101C9300EEFCED7F251239F5D32290E6BBE0FE90F2
:101CA300E6BAE0FDEEEDFF90E013EEF0A3EFF0D324
:101CB3002290E6BBE0FE90E6BAE0FDEEFAEDFB7D96
:101CC300027F357E01122F53D32290E6BBE0FE90B4
:101CD300E6BAE0FDEEEDFF90E015EEF0A3EFF0D3F2
:101CE3002290E6BBE0FE90E6BAE0FDEEFAEDFB7D66
:101CF300037F357E01122F53D322E4FD7F03123A73
:101D030065122964E4FD7F03123A65122964D32224
:021D1300C322E9
:0400950041E07300D3
:03002B00022A8F17
:102A8F00C0E0C0F0C083C082C085C084C086758698
:102A9F0000C0D075D000C000C001C002C003C00488
:062AAF00C005C006C007CF
:102AB500C2AFC2CFD2CA90E073E004F0E0B402081E
:0A2AC500E4F01201B8121FBED2AFF8
:102ACF00D007D006D005D004D003D002D001D0005B
:102ADF00D0D0D086D084D085D082D083D0F0D0E033
:012AEF0032B4
:0F3B5D0075CB3C75CAB075C804538EDFD2AD224C
:0A3BF200123B5D123C4A123BDE223A
:102C6A0012274C5001221212EA50012290E6B9E0D2
:102C7A0024AA60332403703F7B017AE77940123338
:102C8A00FD7B017AE77941122DCA7B017AE7794205
:102C9A00122E197B017AE77943122B5090E68AE4C7
:102CAA00F0A37404F0D32290E7407442F090E68ACD
:092CBA00E4F0A304F0D322C322CC
:103ADC0012374A500122121BF350012290E6B9E032
:053AEC00FF8000C32271
:1035C10043B64053B1BFE5B130E5047F0180027FCE
:1035D10000EF640160F053B6BF43B140E5B130E59F
:1035E100047F0180027F00EF60F290E6727410F0B8
:0435F10075C022225D
:0D3BA400EAF59AAF018F9BAF05123BC822D6
:0B3BC8000F1FEF6005859CC180F722F5
:10385000E5B130E7047F0180027F00EF60177FFF52
:10386000123AF190E740EFF07FFE123AF190E74113
:08387000EFF07F02227F00222D
:103A650075B4FF8FA000000000008DA0E4F5B40040
:0A3A75000000000000000000002225
:103AF10075B4FF8FA0E4F5B40000000000000000E1
:053B01000000AFA0224E
:0300CE00C2AF229C
:033C5000D2AF22CE
:093C060075B4FF8FA0E4F5B422AF
:073C3C0000000000AFA02210
:1037A6001200CE123C06123C3C78C6EFF608F678BC
:1037B600C7E66011123C3CEF12088716740129F91E
:0C37C600E43AFA80EA123C5078C6E6FFB4
:0137D20022D4
:101DDA001200CE75B4FF8FA0851FA0E51F601012F8
:101DEA00084CF5A0151F740129F9E43AFA80ECE4CD
:061DFA00F5B4123C50227A
:02009900C19A0A
:073C430090E67A7401F02203
:083C0F0090E678E020E6F922BE
:1037D30090E678E020E009E030E2F57440F080F014
:1037E300300D0890E678E0A2E2B32290E678E0207C
:0B37F300E207E030E103D38001C322B5
:103B06008F39C20CAF391238A0123B6C90E678E0C0
:043B160030E1EF2289
:1038A000123C0F90E6787480F0EF25E0FF300C04B6
:1038B0007E0180027E00EF4E90E679F0D21AA20CD3
:0638C000920D1237D32225
:0F3B6C00201A0890E6787440F0D21A123C0F220B
:102D7300D20CED64014C700690E6787420F090E676
:102D830079E0120887ED4C603B300C38D20D1237D6
:102D9300D3920CED64024C700890E6787420F080B6
:102DA3000EED64014C700890E6787440F0D21A90EE
:102DB300E679E0120887740129F9E43AFAED1D7007
:062DC300011C80C1A20CFE
:012DC90022E7
:0B3BD30090E679EFF0C20D1237D3220C
:103A1300AD07AC0690E679ECF0C20D1237D3500B2C
:0D3A2300EF90E679F0C20D1237D322C322D6
:103B3D00C20C1238A05004123B6C22ED120865C362
:013B4D002255
:1039960090E6787480F0A374A2F090E678E030E0C8
:1039A600F97440F090E678E020E6F9E030E1E122B3
:10377800AD07AC0690E678E020E6F97480F0A37413
:10378800A2F090E678E030E0F9A3ECF090E678E07B
:0E37980030E0F9A3EDF090E678E030E0F922A1
:1037FE00AB05C28043B20112377890E679EBF090B8
:10380E00E678E030E0F97440F090E678E020E6F9F2
:09381E00123996D28053B2FE2249
:103274008B2F8A308931C28043B201123778AF3242
:103284001532EF6019782FE475F001120AA71208BD
:103294004C90E679F090E678E030E0F980E090E652
:1032A400787440F090E678E020E6F9123996D280FE
:0432B40053B2FE22F1
:10368D008E2A8F2B8B2C8A2D892EAF2F152FEF6025
:10369D001E052BE52BAE2A7002052A14FF782CE4AB
:1036AD0075F001120AA712084CFD1237FE80DB22BD
:0626C1008B2B8A2C892DF1
:1026C70012377890E6787440F090E678E020E6F9E3
:1026D7007480F0A374A3F090E678E030E0F9A3E00B
:1026E700F52F90E678E030E0F9E4FFE52E24FEFED2
:1026F700EFC39E501C90E679E0FE782BE475F0015D
:10270700120AA7EE12088790E678E030E0F90F800A
:10271700DA90E6787420F0A3E0FF782BE475F001F7
:10272700120AA7EF12088790E678E030E0F9A3E0F5
:10273700FF782BE475F001120AA7EF12088790E6DD
:04274700787440F072
:01274B00226B
:0C30CD008F568C578D588B598A5A895B9E
:1030D900C20C1238A0400790E6787440F022AF582D
:1030E900AE57123A13123B6CD20CAF561238A040AD
:1030F9000790E6787440F022AB59AA5AA95B7D0182
:0C3109007C00122D73920B123B6CA20B89
:013115002297
:0836EC008F358C368D378B38C9
:1036F400C20C1238A0400790E6787440F022AF372D
:10370400AE36123A13AF38123BD39202123B6CAF6F
:0637140035123B06A20283
:01371A00228C
:0A31A6008F4E8C4F8D508A518B52D2
:1031B000D20A300A34E5524551602EAB53AA54A9C5
:1031C00055AD50AC4FAF4E1230CD920AE55215526C
:1031D000700215510550E5507002054F74012555D8
:0B31E000F555E43554F55480C9A20AEF
:0131EB0022C1
:0A3083008F2D8C2E8D2F8A308B319B
:10308D00D201300138E53145306032AB32AA33A977
:10309D003412084CFBAD2FAC2EAF2D1236EC920135
:1030AD00E531153170021530052FE52F7002052E13
:0F30BD0074012534F534E43533F53380C5A201B1
:0130CC0022E1
:103521008F4EC20C1238A0400790E6787440F0220A
:103531007FAC123BD37F02123BD3123B6CC20CAF68
:103541004E1238A0400790E6787440F0227F511265
:073551003BD3123B6CD322B7
:10343B008F298B2A8A2B892CC20C1238A04007901B
:10344B00E6787440F0227FAA123BD3D20CAF29123C
:10345B0038A0400790E6787440F022AB2AAA2BA93B
:0D346B002C7D027C00122D73123B6CD322CD
:0432FC008F138D148B
:10330000E51475F003A42404FD12390F921BE51493
:1033100075F003A42405FDAB18AA17AF1312390FDB
:10332000721B921BE51475F003A42406FDAB1AAAC8
:0C33300019AF1312390F721B921BA21B65
:01333C00226E
:063116008B638A648965E9
:10311C007B007A0079C8754C00754D02E4FD1233C2
:10312C00BE921C78C8E6540FFF08E6AB63AA64A9EC
:10313C0065CF8FF0120951E5674568456660111837
:10314C00E6547008C4540FAB66AA67A968120887C6
:02315C00A21CB3
:01315E00224E
:1039B6008D4E8B4FC20C1238A0400790E6787440AB
:1039C600F022AF4E123BD3AF4F123BD3123B6C22C9
:10390F008D4E8A4F8B50C20C1238A0400790E6782C
:10391F007440F022AF4E123BD3AF50AE4F123A135A
:04392F00123B6C22B9
:1033BE008F478D488B498A4A894BC20C1238A040E0
:1033CE000790E6787440F022AF48123BD3D20CAF90
:1033DE00471238A0400790E6787440F022AB49AA15
:0F33EE004AA94BAD4DAC4C122D73123B6CD32240
:083C17007B047D021239B62284
:0A2E68008F428D438B448A45894652
:102E72007B007A00799E754C00754D017D021233FC
:102E8200BE9207E54545464544600E789EE654F0FD
:102E9200AB44AA45A946120887789EE6540FF6E588
:102EA2004354F046F6E6FB7D02AF421239B6720792
:042EB2009207A207DA
:012EB60022F9
:0A22C3008F3D8D3E8B3F8A4089411C
:1022CD007B007A00799DE4FD122E689206E53E545E
:1022DD00F0FDAB3FAA40A941754C00754D08AF3DCF
:1022ED001233BE72069206AB3FAA40A941120926CF
:1022FD00FFE5F0540F8FF0120951AB3FE541240279
:10230D00F9E43540FA120926FFE5F0540F8FF0126B
:10231D000951AB3FE5412404F9E43540FA12092691
:10232D00FFE5F0540F8FF0120951AB3FE541240644
:10233D00F9E43540FA120926FFE5F0540F8FF0123B
:10234D000951789DE6FD7B007A007900AF3D122E94
:07235D006872069206A20659
:012364002256
:0A3BFC007B047A007D0212390F22CB
:0C27BA008F2D8C2E8D2F8B308A318932B0
:1027C6007B007A00799B754C00754D027D021233B1
:1027D600BE9201E531453245306016789BE6540FCE
:1027E600FF08E654F0AB30AA31A932CF8FF01209B8
:1027F60051789BE654F0F608E6540FF6E52E540F92
:10280600FEE52F54F0FF18E64EF608E64FF618E6FA
:10281600FA08E6FB7D02AF2D12390F72019201A272
:0128260001B0
:01282700228E
:0820CA008F298B2A8A2B892C37
:1020D2007B007A0079991227BA9200AB2AAA2BA91F
:1020E2002C754C00754D107D70AF291233BE7200F5
:1020F2009200AB2AAA2BA92C120926FFE5F0540F55
:102102008FF0120951AB2AE52C2402F9E4352BFA9F
:10211200120926FFE5F0540F8FF0120951AB2AE5A0
:102122002C2404F9E4352BFA120926FFE5F0540FAA
:102132008FF0120951AB2AE52C2406F9E4352BFA6B
:10214200120926FFE5F0540F8FF0120951AB2AE570
:102152002C2408F9E4352BFA120926FFE5F0540F76
:102162008FF0120951AB2AE52C240AF9E4352BFA37
:10217200120926FFE5F0540F8FF0120951AB2AE540
:102182002C240CF9E4352BFA120926FFE5F0540F42
:102192008FF0120951AB2AE52C240EF9E4352BFA03
:1021A200120926FFE5F0540F8FF01209517899E6D3
:1021B200FC08E6FD7B007A007900AF291227BA728B
:0521C200009200A200E4
:0121C70022F5
:0A2F53008E4E8F4F8D508A518B5225
:102F5D00E54F7802CEC313CE13D8F9FF789FF6AEA6
:102F6D004FEEC4333354C008F6C20C1238A04007DC
:102F7D0090E6787440F022E55025E05406FF78A0E5
:102F8D00E644104FFF123BD3AF52AE51123A13121B
:032F9D003B6CD3B7
:012FA000220E
:1039F5008C298D2AC20C1238A0400790E6787440B5
:0E3A0500F022AF2AAE29123A13123B6CD322E4
:0400C60048004100AD
:0400BE00123878225A
:103878007BFF7A0079C6789F120AB77B007A0079B5
:103888000078A2120AB77A00799F122C0E920A9039
:07389800E6787440F0A20A7B
:01389F002206
:10397500756943756A488D6B8B6C756D0D7B007A27
:10398500007969123558921D90E6787440F0A21DB1
:01399500220F
:063478008B6E8A6F897063
:10347E007BFF7A0079C8787B120AB7AB6EAA6FA968
:10348E0070787E120AB77B007A0079007881120A72
:10349E00B77A00797B122C0E921E90E6787440F06B
:0234AE00A21E5C
:0134B00022F9
:103827008B718A728973D20C1238A0400790E678A0
:103837007440F0227F017E001200D6AB71AA72A9F4
:09384700737D017C00122D732237
:062C0E008B4E8A4F895035
:102C1400C20C1238A0400790E6787440F022AB4E04
:102C2400AA4FA950120AD5EA494B6035AB4EAA4FB8
:102C3400A950120AD578A5120AB778A5120A9E12CD
:102C4400084CFF600F123BD378A7740126F618E4F2
:102C540036F680E674032550F550E4354FF54F8081
:052C6400BD123B6CD322
:012C69002248
:103558008B748A758976C20C1238A0400790E67879
:103568007440F022AB74AA75A97612084CFF60105B
:10357800123BD374012576F576E43575F57580E44C
:05358800123B6CD32290
:083C1F003099FDC2998F992232
:05009B00C11F017A0005
:10362800C21FEF244E601424D9601024F3600C24C8
:10363800FA600824F96004248F7015438E10758988
:1036480020438780758BFF8F8D759852D28ED21F3D
:03365800A21F228C
:1000D600789F7603087620EF1FAC0670011E4C60F1
:1000E60018789F7603087620789F08E61618860407
:0900F6007001164C60E10080EF7E
:0100FF0022DE
:04371B008F2A8D2B39
:10371F00C20C7F281238A0400790E6787440F02240
:10372F00AF2A123BD39200E52B33333354F8F52BEA
:0A373F00FF123BD39200123B6CD343
:01374900225D
:0238C6008F2A47
:1038C800C20C7F2E1238A0400790E6787440F02290
:1038D800E4FF123BD39200AF2A123BD39200123B73
:0238E8006CD39F
:0138EA0022BB
:06333D008B778A78897984
:10334300C20C7F2E1238A0400790E6787440F0221A
:10335300E4FF123BD39220D20C7F2E1238A04007F9
:1033630090E6787440F022AB77AA78A97912084CDA
:0A337300FF123BD39220123B6CD3F3
:01337D00222D
:030000000225AA2C
:0C25AA00787FE4F6D8FD7581C90225F1A8
:10084C00BB010689828A83E0225002E722BBFE02AA
:09085C00E32289828A83E49322DD
:10086500BB010989828A83F8E028F022500327F723
:1008750022BBFE05F8E328F3228A838982F8E493F4
:02088500282227
:10088700BB010689828A83F0225002F722BBFE0150
:02089700F3224A
:10089900F8BB010DE58229F582E5833AF583E8F095
:1008A900225006E92582C8F622BBFE05E92582C841
:0208B900F22229
:1008BB00BC000BBE0029EF8DF084FFADF022E4CC21
:1008CB00F875F008EF2FFFEE33FEEC33FCEE9DECEA
:1008DB00984005FCEE9DFE0FD5F0E9E4CEFD22ED30
:1008EB00F8F5F0EE8420D21CFEADF075F008EF2F7A
:1008FB00FFED33FD4007985006D5F0F222C398FD6B
:05090B000FD5F0EA2207
:10091000C5F0F8A3E028F0C5F0F8E5821582700272
:060920001583E038F0220F
:10092600BB010A89828A83E0F5F0A3E0225006879C
:10093600F009E71922BBFE07E3F5F009E31922895E
:0B094600828A83E493F5F07401932291
:10095100BB010A89828A83F0E5F0A3F0225006F7F1
:0F09610009A7F01922BBFE06F3E5F009F31922EE
:0D097000EF2BFFEE3AFEED39FDEC38FC22D6
:0E097D00C3EF9BFFEE9AFEED99FDEC98FC2275
:10098B00E88FF0A4CC8BF0A42CFCE98EF0A42CFC0B
:10099B008AF0EDA42CFCEA8EF0A4CDA8F08BF0A489
:1009AB002DCC3825F0FDE98FF0A42CCD35F0FCEBE8
:1009BB008EF0A4FEA9F0EB8FF0A4CFC5F02ECD39AD
:0F09CB00FEE43CFCEAA42DCE35F0FDE43CFC221A
:1032B800C2D5E830E70FB2D5E4C39BFBE49AFAE441
:1032C80099F9E498F8EC30E717B2D51232EE120B00
:1032D8008AE4C39BFBE49AFAE499F9E498F880033A
:1032E800120B8A30D50DE4C39FFFE49EFEE49DFDDA
:0432F800E49CFC2234
:0E09DA00C3E49FFFE49EFEE49DFDE49CFC222E
:1009E800EB9FF5F0EA9E42F0E99D42F0EC6480C886
:0609F80064809845F02226
:1009FE00EB9FF5F0EA9E42F0E99D42F0E89C45F04F
:010A0E0022C5
:100A0F00E8600FECC313FCED13FDEE13FEEF13FFC5
:030A1F00D8F122E9
:100A2200E86010ECA2E713FCED13FDEE13FEEF13EA
:040A3200FFD8F022D7
:100A3600E8600FEFC333FFEE33FEED33FDEC33FC1E
:030A4600D8F122C2
:0C0A4900E0FCA3E0FDA3E0FEA3E0FF2220
:0C0A5500E0F8A3E0F9A3E0FAA3E0FB2224
:0C0A6100ECF0A3EDF0A3EEF0A3EFF02208
:100A6D00A8828583F0D083D082120A84120A841260
:100A7D000A84120A84E473E493A3C583C5F0C58385
:100A8D00C8C582C8F0A3C583C5F0C583C8C582C8D3
:010A9D002236
:090A9E00E6FB08E6FA08E6F9227D
:100AA700FAE6FB0808E6F925F0F618E6CA3AF62250
:090AB700EBF608EAF608E9F62264
:090AC000E0FBA3E0FAA3E0F92237
:0C0AC900E493FB740193FA740293F92289
:100AD500BB010789828A83020AC05005E9F8020A28
:100AE5009EBBFE05E9F8020C1C89828A83020AC9AD
:100AF500D083D082F8E4937012740193700DA3A390
:100B050093F8740193F5828883E4737402936860A3
:060B1500EFA3A3A380DFA3
:060B1B008A838982E47365
:100F8E00E55D2451F8E6055D22784E301102785168
:100F9E00E475F001120AA702084C200AEB7F2ED24C
:100FAE000A8018EF540F2490D43440D4FF300E0B27
:100FBE00EF24BFB41A0050032461FFE55E600215F2
:100FCE005E0561E5617002056030110D784EE475C5
:100FDE00F001120AA7EF020887023C1F7403D21118
:100FEE008003E4C211F55D8B4E8A4F8950E4F55EA5
:100FFE00F560F561E55E60077F20120FC980F5751B
:10100E005FFFC20BC20AC20CC20DC20FC210C212C7
:10101E00120F97FF700D3011057F00120FDAAF61BE
:10102E00AE6022B4255FC2D5C20E120F97FF24D038
:10103E00B40A00501A75F00A785E30D50508B6FF6E
:10104E000106C6A426F620D5047002D20D80D9243E
:10105E00CFB41A00EF5004C2E5D20E0211DAD20B51
:10106E0080C6D20A80C0D20C80BCD2D580BAD20F34
:10107E0080B47F20120FC9200C077401B55E0040AA
:10108E00F1120F8EFF120FC9021002D212D210806F
:10109E0095120F8EFB120F8EFA120F8EF94A4B70AD
:1010AE000679AB7A127BFF200C2EE55E602A7E005D
:1010BE008E82758300120B2160060EEE655F70F056
:1010CE00C2D5EBC0E0EAC0E0E9C0E0EE121221D0DA
:1010DE00E0F9D0E0FAD0E0FB12084CFF60AAEBC0BA
:1010EE00E0EAC0E0E9C0E0120FC9D0E02401F9D077
:1010FE00E03400FAD0E0FBE55F0460DCD55FD98018
:10110E00877BFF7A12791DD20C809C791080027930
:10111E0008C210C2128008D2D5790A8004790AC298
:10112E00D5E55F047002F55FE4FAFDFEFF120F8E47
:10113E00FC7B08200B13120F8EFD7B10300A0A1257
:10114E000F8EFE120F8EFF7B20EC3382D592D55080
:10115E0013C3E4300A069FFFE49EFEE4200B039DBA
:10116E00FDE49CFCE4CBF8C20BEC700CCFCECDCCE6
:10117E00E824F8F870F38017C3EF33FFEE33FEED7B
:10118E0033FDEC33FCEB33FB994002FB0FD8E9EB5C
:10119E00300B05F8D0E0C448B20BC0E00AEC4D4E5F
:1011AE004F78207B0070C2EAB55F0040BCC0E012F1
:1011BE001223D0F0D0E0200B04C4C0E0C4B20BC0A8
:1011CE00F0120FB2D0F0D5F0EB021002120AF510A9
:1011DE009F5311195810704C106C42111D4F112550
:0F11EE0044112549108543112B55110F46110F40
:1011FD0045110F4712CB5010742D10782E109B2BCC
:10120D00107C2310992012B42A103448000010933A
:10121D003F3F3F00790AA2D5200D14300F09B910B8
:10122D00020404B9080104A2D520100250010420C3
:10123D000C68920CB55E005034C0E07F20300D1963
:10124D007F30A20C7210720F500F12127AC20CC2A4
:10125D0010C20FC2127F30800F300F03E9C0E012B1
:10126D000FC9300F03D0E0F9D0E0B55ECC300F17C9
:10127D007F30B9100C120FC97F58300E077F788060
:10128D0003B90803120FC9300C057F2D020FC97F5A
:10129D00202012F87F2B2010F322920C80CF286E85
:1012AD00756C6C2900D20B120F8E300BF8C20B78B7
:1012BD005E30D50108F60210342D50434958120FF7
:1012CD008E2403B405004001E49012C693120FBAA8
:0D12DD00743A120FBAD20D755E0402111999
:1025B600022CC3E493A3F8E493A34003F68001F24C
:1025C60008DFF48029E493A3F85407240CC8C33326
:1025D600C4540F4420C8834004F456800146F6DFF5
:1025E600E4800B0102040810204080900080E47E05
:1025F600019360BCA3FF543F30E509541FFEE493EA
:10260600A360010ECF54C025E060A840B8E493A3B0
:10261600FAE493A3F8E493A3C8C582C8CAC583CADB
:10262600F0A3C8C582C8CAC583CADFE9DEE780BE93
:0100A000005F
:100B2100BB010CE58229F582E5833AF583E0225089
:100B310006E92582F8E622BBFE06E92582F8E222D3
:0D0B4100E58229F582E5833AF583E49322ED
:100B4E0075F008758200EF2FFFEE33FECD33CDCC5E
:100B5E0033CCC58233C5829BED9AEC99E5829840E1
:100B6E000CF582EE9BFEED9AFDEC99FC0FD5F0D6BE
:100B7E00E4CEFBE4CDFAE4CCF9A88222B800C1B9E8
:100B8E000059BA002DEC8BF084CFCECDFCE5F0CB26
:100B9E00F97818EF2FFFEE33FEED33FDEC33FCEB5F
:100BAE0033FB10D703994004EB99FB0FD8E5E4F91A
:100BBE00FA227818EF2FFFEE33FEED33FDEC33FC07
:100BCE00C933C910D7059BE99A4007EC9BFCE99AFB
:100BDE00F90FD8E0E4C9FAE4CCFB2275F010EF2F40
:100BEE00FFEE33FEED33FDCC33CCC833C810D70740
:100BFE009BEC9AE899400AED9BFDEC9AFCE899F87B
:0E0C0E000FD5F0DAE4CDFBE4CCFAE4C8F9220D
:090C1C00E2FB08E2FA08E2F92209
:00000001FF
