:03004300020100B7
:0300530002018027
:100100000214300002294400022944000217E500CD
:100110000216F80002294400022944000229440082
:100120000214C100021551000229440002294400B2
:100130000229440002294400022944000229440003
:1001400002294400022944000229440002294400F3
:1001500002294400022944000229440002294400E3
:1001600002294400022944000229440002294400D3
:1001700002294400022944000229440002294400C3
:1001800002294B0002294B0002294B0002294B0097
:1001900002294B0002294B0002294B0002294B0087
:1001A00002294B0002294B0002294B0002294B0077
:0801B00002294B0002294B005B
:101E0000040309041A0369006400200051007500EE
:101E100061006E00740069007100750065001A03AE
:101E20006900640033003100780078002D00410023
:101E30006C0069006300650012010002FF000040B1
:101E4000DC1D03020001010203010A060002FF007B
:101E50000040010009023C00010100C0000904002B
:101E60000006FF0000000705010240000007058191
:101E70000340000807050202400000070504024075
:101E800000000705860240000007058802400000A8
:101E900009023C00010100C0000904000006FF0027
:101EA000000007050102000200070581034000074A
:101EB00007050202000200070504020002000705F0
:101EC000860200020007058802000200FF1E00FFD4
:101ED0001E04FF1E1E000102020303040405050088
:091EE00002040408080C0C1010A7
:0300A300022944EB
:072944005391EF75A1003271
:0300AB0002294BDC
:07294B005391BF75A2003299
:0300B3000217E54C
:1017E500C0E0C0F0C083C082C085C084C086758655
:1017F50000C0D075D000C000C001C002C003C00445
:10180500C005C006C0071200A190E682E044C0F002
:1018150090E6817401F04387010000000000005349
:1018250091EF75A10090E65D7408F0D007D006D061
:1018350005D004D003D002D001D000D0D0D086D0BE
:0C18450084D085D082D083D0F0D0E03277
:03003300021D208B
:101D2000C0E0C0F0C083C082C085C084C086758614
:101D300000C0D075D000C000C001C002C003C00404
:101D4000C005C006C0071200A253D8EFD007D006C6
:101D5000D005D004D003D002D001D000D0D0D0869E
:0D1D6000D084D085D082D083D0F0D0E03286
:101DB9008F2790E6BFE0FE90E6BEE0FDEEF50FED61
:101DC900F510E52775F003A42409F8120BA3E527FC
:101DD900700E90E65F04F090E65EE04401F0801436
:101DE90090E65F7402F090E65EE04402F090E68AC5
:071DF900E4F0A3F0C20F2289
:0400A6008F38C322AA
:0300BB000214C16B
:1014C100C0E0C0F0C083C082C085C084C08675867C
:1014D10000C0D075D000C000C001C002C003C0046C
:1014E100C005C006C007C2AF90E68AE0FEA3E0FFD8
:1014F100C3E5109FF510E50F9EF50F451070047FB1
:101501000180027F00850B82850A83120C0240173D
:1015110090E65EE054FEF07509FF750A00750BA6B2
:1015210090E6A0E04480F05391EF75A100D2AFD0D6
:1015310007D006D005D004D003D002D001D000D00E
:10154100D0D086D084D085D082D083D0F0D0E03284
:0300C300021551D2
:10155100C0E0C0F0C083C082C085C084C0867586EB
:1015610000C0D075D000C000C001C002C003C004DB
:10157100C005C006C007C2AF90E68AE0FEA3E0FF47
:10158100C3E5109FF510E50F9EF50F451070047F20
:101591000180027F00850E82850D83120C024017A7
:1015A10090E65EE054FDF0750CFF750D00750EA61A
:1015B10090E6A0E04480F05391EF75A100D2AFD046
:1015C10007D006D005D004D003D002D001D000D07E
:1015D100D0D086D084D085D082D083D0F0D0E032F4
:1005140090E6B9E0120BD805370005B401061D03B7
:1005240006FC0607C60807D60907E70A07FA0B0000
:1005340000084090E6B8E0541F14601B146029249E
:1005440002600302084090E740E4F0A3F090E68ADA
:10055400F0A37402F0D32290E740E4F0A3F090E615
:100564008AF0A37402F0D32290E6BCE0FF547EFD2F
:100574007C00EFD3948040067E007F0180047E00DF
:100584007F00EE4CFEEF4D24D5F582741E3EF583BC
:10059400E49324A1FFE434E68F82F583E0540190D0
:1005A400E740F0A3E4F090E68AF0A37402F0D322CB
:1005B40090E6B8E0541F24FE600302084090E6BAB7
:1005C400E0600302084090E6BCE0FF604AFE54800D
:1005D400FD131313541FFDEE540F4D90E683F0E00A
:1005E4004420F0EF547EFD7C00EFD3948040067EDF
:1005F400007F0180047E007F00EE4CFEEF4D24D589
:10060400F582741E3EF583E49324A1FFE434E68F5F
:1006140082F583E054FEF0D32290E6B8E0541F2420
:10062400FE600302084090E6BAE0600302084090CE
:10063400E6BCE0FF70030206FAFE5480FD131313B8
:10064400541FFDEE540F4D90E683F0E04420F0EF8C
:10065400547EFEFD7C00EFD3948040067A007B013B
:1006640080047A007B00EA4CFCEB4D24D5F58274BF
:100674001E3CF583E49324A1FDE434E68D82F583E6
:10068400E04401F090E6BCE030E735FFEEFD7C008D
:10069400EFD3948040067E007F0180047E007F00BB
:1006A400EE4CFEEF4D24D5F582741E3EF583E493A3
:1006B40024A1FFE434E68F82F583E04402F080361F
:1006C40090E6BCE0FF547EFD7C00EFD394804006AE
:1006D4007E007F0180047E007F00EE4CFEEF4D24FF
:1006E400DFF582741E3EF583E493248CFFE434E644
:1006F4008F82F583E4F0D32290E6BBE024FE601DF4
:1007040014607C24FD604114604A240660030208DE
:100714004090E6B3741EF0A37438F0D32290E680C0
:10072400E030E712901E917402F090E6B3741EF06C
:10073400A37490F08010901E557402F090E6B37488
:100744001EF0A37454F0D32290E6B3741EF0A37485
:100754004AF0D32290E680E030E712901E557407E9
:10076400F090E6B3741EF0A37454F08010901E91C0
:100774007407F090E6B3741EF0A37490F0D3229043
:10078400E6BAE0FFC39403501DEF75F003A424CC34
:10079400F582E4341EF583120BACAF0190E6B3EAA4
:1007A400F0A3EFF0801A90E6BAE0FFC00790E6BF2E
:1007B400E0FE90E6BEE0FDEEFCEDD00712239322AE
:1007C400D32290E740E508F090E68AE4F0A304F031
:1007D400D32290E6BAE0FF1227FF506090E6BAE019
:1007E400F5082290E6BCE0705390E740F090E68A6A
:1007F400F0A304F0D32290E6BCE0704090E6A2E0BF
:100804004402F090E68DE4F07F01EF5480FE131370
:1008140013541FFEEF540F4E90E683F0E04420F093
:10082400EF4480FE5480FD131313541FFDEE540F48
:0D0834004DF0E04420F00FBF08D0D322C3E8
:010841002294
:0300CB000216F822
:1016F800C0E0C0F0C083C082C085C084C086758643
:1017080000C0D075D000C000C001C002C003C00432
:10171800C005C006C00790E68AE4F090E690F09015
:10172800E694F090E698F090E69CF0F5087509FFCD
:10173800750A00750BA6750CFF750D00750EA612BF
:1017480000AE5391EF75A10090E65D7410F0D007DC
:10175800D006D005D004D003D002D001D000D0D01C
:0F176800D086D084D085D082D083D0F0D0E0322C
:0300D300021430E4
:10143000C0E0C0F0C083C082C085C084C08675860D
:1014400000C0D075D000C000C001C002C003C004FD
:06145000C005C006C00744
:10145600752681C2AF90E65EE054FEF0E054FDF0E2
:10146600D20F90E6B8E0546024C0600E244070129B
:10147600120514500D7526808008120DB65003759E
:101486002680300F0790E6A0E04526F05391EF75D1
:0A149600A10090E65D7401F0D2AFF2
:1014A000D007D006D005D004D003D002D001D000A0
:1014B000D0D0D086D084D085D082D083D0F0D0E078
:0114C00032F9
:1027E70012288F90E680E04408F012288F90E68048
:0827F700E04402F012288F22D9
:10286B007FE87E031200D690E680E054F7F0122842
:02287B008F22AA
:101AF3001227E712286B90E6827404F090E680E0E8
:101B03004402F0538EF890E68AE4F090E690F09069
:101B1300E694F090E698F090E69CF0F5087509FFDE
:101B2300750A00750BA6750CFF750D00750EA69052
:101B3300E668E0440BF090E65CE04419F053D8EF1C
:061B430043D820D2E82285
:100FC4000D5265736574204658320D3D3D3D200039
:100FD400203D3D3D0D00436F707972696768742050
:100FE400284329206964205175616E74697175659F
:100FF4002E20416C6C207269676874207265736579
:10100400727665642E204669726D77617265207010
:10101400726F707269657461727920746F2069648B
:10102400205175616E74697175652E20436F7079F6
:10103400696E67206F72206F7468657220757365BE
:10104400206F6620746865206669726D77617265C9
:101054002070726F6772616D2065786365707420AB
:10106400617320657870726573736C79206175742F
:10107400686F72697A6564206279204944205175E9
:10108400616E74697175652069732070726F686927
:1010940062697465642E006964333130302D416CAB
:1010A400696365202F204F63742031322032303140
:0D10B40030202F2030393A33383A343200E2
:102255008B278A288929AB2AAA2BA92C120A4B601D
:102265001C782AE475F001120B93120A4BFF7827AC
:10227500E475F001120B93EF120A8680D9AB27AAF9
:0822850028A929E4120A8622AF
:10288F000000000000000000000000000000000039
:01289F002216
:1018B90012288F90E60274E8F012288FA3E4F01240
:1018C900288F90E609F012288F12288F90E612745B
:1018D900A0F012288F90E61474E0F012288F1228D5
:1018E9008F90E6047480F012288F7402F012288F0A
:1018F9007406F012288FE4F012288F12288F90E6D0
:101909001804F012288F7411F012288F90E61A74B7
:061919000DF012288F22E0
:1018510090E600E054DFF090E6707402F0E4F58069
:1018610075B289A3F0F5A0F5B4A37410F0E4F5B155
:1018710075B61690E600E04422F075C02212288F5A
:10188100A37403F012288F90E680E030E714122849
:101891008F90E6247402F012288FA3E4F012288FAF
:1018A100801212288F90E624E4F012288FA374404E
:0818B100F012288F1218B92271
:0B28F50090E601E4F0D28053B2FE2216
:0100A100223C
:0100A200223B
:10282D0090E6007432F012288F90E60B7401F012CE
:05283D00288FD20E22DD
:0400AE0012282D22C5
:1027FF00EF14600A04700EC20D1228F5D3221218BE
:07280F0051D20DD322C322B8
:10232D008F277892E6FE08E6FF7B017AE7794090E9
:10233D00E68BE0F52D1223C590E68BE0789326F61B
:10234D0018E436F6E5276002C32290E68AE4F0A38E
:03235D00F0D32298
:021985008F27AA
:1019870090E68BE0F528E4F529E528D3940040425A
:10199700E528D3942040047F208002AF288F2A783F
:1019A70092E6FE08E6FFE5292440FDE434E7FAA9BC
:1019B700057B01852A301220557893E52A26F618EB
:1019C700E436F6E52A2529F529C3E528952AF528D9
:1019D70080B7E5276002C32290E68AE4F0A3F0D33C
:0119E70022DD
:060842008B298A2A892B94
:10084800E47852F67891E6184670057624087659C9
:100858007890E6FE08E6FF7850A60608A607AB29BA
:10086800AA2AA92B08E606F582758300E4120A98DD
:100878007852E606F5827583007403120A98785256
:10088800E606F5827583007456120A987852E606D1
:10089800F582758300E4120A987852E606F58275A7
:1008A80083007445120A987852E606F5827583002B
:1008B800E4120A987852E606F582758300744312AA
:1008C8000A987852E606F582758300E4120A987849
:1008D80052E606F582758300742D120A987852E65E
:1008E80006F582758300E4120A987850E6FE08E659
:1008F800FF7C277D10120ABAEF2430FFAB29AA2A01
:10090800A92B7852E606F582758300EF120A9878CB
:1009180050E6FE08E6FF7C277D10120ABA7850A63A
:100928000408A605AB29AA2AA92B08E606F58275AC
:100938008300E4120A987850E6FE08E6FF7C037DFF
:10094800E8120ABAEF2430FFAB29AA2AA92B785259
:10095800E606F582758300EF120A987850E6FE08DD
:10096800E6FF7C037DE8120ABA7850A60408A605BB
:10097800AB29AA2AA92B08E606F582758300E4129A
:100988000A987850E6FE08E6FF7C007D64120ABAF1
:10099800EF2430FFAB29AA2AA92B7852E606F58264
:1009A800758300EF120A987850E6FE08E6FF7C008F
:1009B8007D64120ABA7850A60408A605AB29AA2AAB
:1009C800A92B08E606F582758300E4120A98785088
:1009D800E6FE08E6FF7C007D0A120ABAEF2430FF23
:1009E800AB29AA2AA92B7852E606F582758300EF6F
:1009F800120A987850E6FE08E6FF7C007D0A120A83
:100A0800BA7850ECF608EDF6AB29AA2AA92B08E625
:100A180006F582758300E4120A98AF05EF2430FFCB
:100A28007852E606F582758300EF120A987852E646
:100A380006F582758300E4120A987852E6120A864F
:020A4800E6FFC7
:010A4A002289
:042393008C278D28DE
:10239700EF640370277B017AE77940120842784F90
:1023A700EFF67E00C39528EE952750028004AE27EE
:0D23B700AF2890E68AEEF0A3EFF0D322C32A
:0123C40022F6
:1027B50078947606087640789408E61618860670AA
:0827C50001164E60030080EFD5
:0127CD0022E9
:100DB60090E6B8E020E703020E56120C43500122DB
:100DC6001210C1500122121EE950012290E6B9E02C
:100DD60024A860252498601124E0603A2456706E99
:100DE60090E68AE4F0A3F0D32290E740E4F0F09096
:100DF600E68AF0A37402F0D322752AFF752B1075CC
:100E06002C9B7B017AE7794012225590E68AE4F022
:100E1600A37426F0D32290E6BDE0FE90E6BCE0FD8A
:100E2600EEEDFF7B017AE7794090E6BFE0FD90E6C4
:100E3600BEE0F52C12166D90E6BFE0FE90E6BEE031
:100E4600FDEEEDFF90E68AEEF0A3EFF0D322C3228B
:100E56001211955001221212485001221228B15047
:100E6600012290E6B9E024FE60112441601224E0DC
:100E7600601014602B24597045D3221218B9D3225E
:100E8600D32290E6BDE0FE90E6BCE0FDEE7892F659
:100E9600ED08F67BFF7A23792D7F01121DB9D32247
:100EA60090E6BDE0FE90E6BCE0FDEE7892F6ED0839
:100EB600F67BFF7A1979857F01121DB9D322C322E9
:07295200E47890F608F6227C
:101A440012282D122952121AF3122960121851D297
:101A5400AF122900121C841200B67FF312236053C4
:101A6400B1FB53B1FD7BFF7A0F79C412021A7BFFDD
:101A74007A10799B12021A7BFF7A0F79D412021A18
:101A840090E680E030E70853B1FD43B10480F153A0
:081A9400B1FB43B10280E9221D
:1026A50090E6787480F0A374A2F090E678E030E0CC
:1026B500F97440F090E678E020E6F9E030E1E122B7
:10245300AD07AC0690E678E020E6F97480F0A3744B
:10246300A2F090E678E030E0F9A3ECF090E678E0B3
:0E24730030E0F9A3EDF090E678E030E0F922D9
:10250600AB05C28043B20112245390E679EBF090FA
:10251600E678E030E0F97440F090E678E020E6F9FD
:092526001226A5D28053B2FE2258
:102055008B2D8A2E892FC28043B201122453AF30B3
:102065001530EF6019782DE475F001120B93120A03
:102075004B90E679F090E678E030E0F980E090E684
:10208500787440F090E678E020E6F91226A5D28033
:0420950053B2FE2222
:1023C5008E288F298B2A8A2B892CAF2D152DEF600E
:1023D5001E0529E529AE287002052814FF782AE490
:1023E50075F001120B93120A4BFD12250680DB22B4
:06166D008B298A2A892B5B
:1016730012245390E6787440F090E678E020E6F97F
:101683007480F0A374A3F090E678E030E0F9A3E06F
:10169300F52D90E678E030E0F9E4FFE52C24FEFE3A
:1016A300EFC39E501C90E679E0FE7829E475F001C3
:1016B300120B93EE120A8690E678E030E0F90F8081
:1016C300DA90E6787420F0A3E0FF7829E475F0015E
:1016D300120B93EF120A8690E678E030E0F9A3E06C
:1016E300FF7829E475F001120B93EF120A8690E656
:0416F300787440F0D7
:0116F70022D0
:0400B6001229672282
:101EE90012139750012290E6B9E024AA602A24032C
:101EF90070367B017AE779401221A17B017AE77973
:101F090041121B497B017AE77942121B9890E68AB4
:101F1900E4F0A37403F0D32290E7407441F090E613
:0A1F29008AE4F0A304F0D322C322DF
:0F28B10012191F50012290E6B9E0FF8000C322E8
:05281600038800000032
:0621A1008B278A28892922
:1021A700E4120A86AB27AA28A9297D017F521228A3
:1021B700A09200AB27AA28A9297D027F201228A078
:1021C70082009200AB27AA28A9297D047F481228FC
:0721D700A082009200A200AB
:0121DE0022DE
:0B2900007F201229217F4812228D2227
:0D28CF0043B62053B1DF53B6DF43B12022E2
:101C36008F27C28043B2017888120B8AE9788726FB
:101C4600FDEA1836FC90E68AE0FAA3E0FB7530015F
:101C56007531E77532407F52121F33D28053B2FE80
:101C6600E5276002C32290E68AE0FEA3E078872695
:0E1C7600F618EE36F690E68AE4F0A3F0D322DC
:102705008F277B017AE7794090E68BE0FD1228DC84
:0F271500E5276002C32290E68AE4F0A3F0D32206
:102724008F277B017AE7794090E68AE0A3E0F52CD5
:0E2734007F011225CF90E68AE4F0A3F0C322C5
:102742008F277B017AE7794090E68AE0A3E0F52CB7
:0E2752007F021225CF90E68AE4F0A3F0C322A6
:1023F5008F27C28043B2017888120B8AE92420F91D
:10240500EA3408FCAD017530017531E77532407B62
:0F241500087A007F52121F33D28053B2FEC322C7
:100C430090E6B9E0120BD80D30410CAE460D454786
:100C53000D88550C6F860D00910CEA920D16950DBB
:100C63005A9C0CDDF20CC3F300000DB490E6BDE01A
:100C7300FE90E6BCE0FDEEFCED90E6BFE0FE90E604
:100C8300BEE0FBEEFAEB753D01753EE7753F407F35
:100C93005212200F90E6BFE0FE90E6BEE0FDEEEDBF
:100CA300FF90E68AEEF0A3EFF0D32290E740120B19
:100CB3005907270E0090E68AE4F0A37404F0D322C8
:100CC300E5B130E7047F0180027F0090E740EFF059
:100CD30090E68AE4F0A304F0D32212255890E68A22
:100CE300E4F0A3EFF0D3227B017AE779407F481247
:100CF30021DF90E68AE4F0A37402F0D3227B017A29
:100D0300E779407FF01224AE90E68AE4F0A3740200
:100D1300F0D3227B017AE779407DF07C0F7F2012AC
:100D23000EC690E68AE4F0A37410F0D3227B017A16
:100D3300E779407FF11224AE90E68AE4F0A304F051
:100D4300D3227B017AE779407F801224AE90E68A32
:100D5300E4F0A304F0D3227B017AE779407F801289
:100D630024AE90E741E090E740F090E742E090E75F
:100D730041F090E743E090E742F090E68AE4F0A385
:100D83007403F0D3227888120B8AE92420F9EA3419
:100D930008FCAD01753D01753EE7753F407B087A60
:100DA300007F5212200F90E68AE4F0A37408F0D378
:030DB30022C32236
:1011950090E6B9E0120BD812053A121243121F4419
:1011A50011D14512374811EE4912395411BE851136
:1011B500F3F011F8F100001246E47886F608F67BA4
:1011C500FF7A1C79367F01121DB9D32290E6BBE068
:1011D500FF90E6BAE090E740F07B017AE779407549
:1011E5002C017F701225CFD3221228CFD3221222B1
:1011F500F9D3227BFF7A2779057F01121DB9D32206
:101205007BFF7A2779247F01121DB9D3227BFF7AD0
:101215002779427F01121DB9D32290E6BAE090E703
:1012250040F07B017AE77940752C01E4FF1225CF68
:10123500D322D3227BFF7A2379F57F01121DB9D3FF
:0312450022C3229F
:05281B00038300000032
:061B49008B278A28892980
:101B4F00E4120A86AB27AA28A9297D017F53122800
:101B5F00A09200AB27AA28A9297D027F491228A0AD
:101B6F0082009200AB27AA28A9297D047F30122872
:101B7F00A082009200AB27AA28A9297D087F4012D6
:081B8F0028A082009200A200D0
:011B9700222B
:101C84007F401200BE7F4912228D120080787BE6CD
:101C9400FA08E6FBE4FD7F307E01121CD2787DE673
:101CA400FA08E6FB7D017F307E01121CD2787FE6C4
:101CB400FA08E6FB7D027F307E01121CD27881E6B1
:0E1CC400FA08E6FB7D037F307E01121CD2225F
:100080007883120B8AE429F9EA3408FCAD01753D46
:1000900000753E00753F7B7B087A007F5312200F6E
:0100A000223D
:102663007883120B8AE429F9EA3408FCAD0175304A
:102673000075310075327B7B087A007F53121F335C
:012683002234
:102099008F277883120B8AE9787A26FDEA1836FCAD
:1020A90090E68AE0FAA3E0FB7530017531E77532F5
:1020B900407F53121F33E5276002C32290E68AE06E
:1020C900FEA3E0787A26F618EE36F690E68AE4F072
:0420D900A3F0D3227B
:0226C5008F275D
:1026C70090E740E0FF7B017AE7794112221C90E70F
:0D26D70040E0FF7B007A00792812252FC318
:0126E40022D3
:0C28E9008F2790E740E0FF122580C322FB
:10287D008F2790E740E0FFA3E0FDA3E0FB12268445
:02288D00C32264
:10261B008E278F288C298D2AEF25E0247BF8A6297D
:10262B0008A62A122663AD28AB2AAA297F307E0181
:04263B00121CD22279
:1010C10090E6B9E024DB7003021160147003021191
:1010D1007624F4604914605C24A5600302119390A6
:1010E100E6BDE0FE90E6BCE0FDEEFCED90E6BFE083
:1010F100FE90E6BEE0FBEEFAEB753D01753EE7754D
:101101003F407F5312200F90E6BFE0FE90E6BEE025
:10111100FDEEEDFF90E68AEEF0A3EFF0D3227B0126
:101121007AE779407F491221DF90E68AE4F0A374DF
:1011310002F0D3227883120B8AE429F9EA3408FCFD
:10114100AD01753D01753EE7753F407B087A007F33
:101151005312200F90E68AE4F0A37408F0D3227BA7
:10116100017AE779407FA01224AE90E68AE4F0A3E9
:101171007409F0D32290E6BBE0FF90E6BAE0FF7B72
:10118100017AE7794012252F90E68AE4F0A304F072
:04119100D322C32280
:1012480090E6B9E0120BD812C92312E924128827B4
:10125800129528127B3012A23112688D000012F309
:10126800E47879F608F67BFF7A2079997F01121DD8
:10127800B9D3227BFF7A2679C57F01121DB9D32203
:101288007BFF7A2879E97F01121DB9D3227BFF7A87
:1012980028797D7F01121DB9D32290E6BDE0FE902A
:1012A800E6BCE0FDEEEDFFC006C00790E6BBE0FE41
:1012B80090E6BAE0FDEEFCEDD007D00612261BD36F
:1012C8002290E6BBE0FF90E6BAE090E740F07B01B1
:1012D8007AE77940752C017F201225CF1218B9D3EF
:0D12E800227F2112292B1218B9D322C32214
:05282000038B00000025
:061B98008B278A28892931
:101B9E00E4120A86AB27AA28A9297D017F561228AE
:101BAE00A09200AB27AA28A9297D027F381228A06F
:101BBE0082009200AB27AA28A9297D027F23122832
:101BCE00A082009200AB27AA28A9297D027F3C1291
:081BDE0028A082009200A20081
:011BE60022DC
:062967007F2312293C222F
:1020DD008F27788B120B8AE9788F26FDEA1836FC4C
:1020ED0090E68AE0FAA3E0FB7530017531E77532B1
:1020FD00407F56121F33E5276002C32290E68AE027
:10210D00FEA3E0788F26F618EE36F690E68AE4F018
:04211D00A3F0D32236
:101D6D008F2790E740E0FAA3E0FBE4FD7F387E018A
:101D7D00121CD290E742E0FAA3E0FB7D017F387E92
:101D8D0001121CD290E744E0FAA3E0FB7D027F38FC
:101D9D007E01121CD27B017AE77946752C057F10E6
:0C1DAD001225CF90E68AE4F0A3F0C322D8
:102481008F2790E740E0FAA3E0FBE4FD7F3C7E016B
:10249100121CD290E742E0FAA3E0FB7D037F3C7E71
:0D24A10001121CD290E68AE4F0A3F0C322E1
:1027CE008F277B017AE77940752C027F131225CF74
:0927DE0090E68AE4F0A3F0C322A6
:1013970090E6B9E024D4604D14605F248F60702418
:1013A70012600302142E90E6BDE0FE90E6BCE0FD5D
:1013B700EEFCED90E6BFE0FE90E6BEE0FBEEFAEB5A
:1013C700753D01753EE7753F407F5612200F90E649
:1013D700BFE0FE90E6BEE0FDEEEDFF90E68AEEF0A0
:1013E700A3EFF0D3227B017AE779407F901224AEF6
:1013F70090E68AE4F0A3EFF0D3227B017AE7794005
:101407007F911224AE90E68AE4F0A3EFF0D3227B1B
:10141700017AE779407DF07F231212F590E68AE49E
:09142700F0A37408F0D322C322E3
:10191F0090E6B9E024D5604124FD6044249F602CFB
:10192F0024F2601B24FE603F24147048E4788EF686
:10193F0008F67BFF7A2079DD7F01121DB9D3227B58
:10194F00FF7A1D796D7F01121DB9D3227BFF7A2497
:10195F0079817F01121DB9D3227F1112292BD32236
:10196F007F1212292BD3227BFF7A2779CE7F011288
:06197F001DB9D322C322B2
:1022F90043B64053B1BFE5B130E5047F0180027FA9
:1023090000EF640160F053B6BF43B140E5B130E579
:10231900047F0180027F00EF60F290E6727410F092
:0423290075C0222237
:0D28DC00EAF59AAF018F9BAF0512290B2280
:0B290B000F1FEF6005859CC180F722C4
:10255800E5B130E7047F0180027F00EF60177FFF5D
:1025680012284290E740EFF07FFE12284290E741A0
:08257800EFF07F02227F002238
:10279B0075B4FF8FA000000000008DA0E4F5B4001D
:0A27AB000000000000000000002202
:1028420075B4FF8FA0E4F5B40000000000000000A2
:052852000000AFA02210
:0300CE00C2AF229C
:03296D00D2AF22C4
:09292B0075B4FF8FA0E4F5B4229D
:0729590000000000AFA02206
:1024AE001200CE12292B122959784FEFF608F67822
:1024BE0050E66011122959EF120A8616740129F995
:0C24CE00E43AFA80EA12296D784FE6FF2C
:0124DA0022DF
:1025CF001200CE75B4FF8FA0852CA0E52C601012E1
:1025DF000A4BF5A0152C740129F9E43AFA80ECE4C2
:0625EF00F5B412296D2273
:02282500C19060
:0729600090E67A7401F022F9
:0829340090E678E020E6F922AC
:1024DB0090E678E020E009E030E2F57440F080F01F
:1024EB0030070890E678E0A2E2B32290E678E0208D
:0B24FB00E207E030E103D38001C322C0
:102857008F37C206AF371225F51228C090E678E009
:0428670030E1EF224B
:1025F50012293490E6787480F0EF25E0FF30060468
:102605007E0180027E00EF4E90E679F0D210A206A0
:0626150092071224DB22F3
:0F28C00020100890E6787440F0D21012293422CC
:101A9C00D206ED64014C700690E6787420F090E666
:101AAC0079E0120A86ED4C603B300638D2071224DE
:101ABC00DB9206ED64024C700890E6787420F0809E
:101ACC000EED64014C700890E6787440F0D21090E2
:101ADC00E679E0120A86740129F9E43AFAED1D70F0
:061AEC00011C80C1A206EE
:011AF20022D1
:0B29160090E679EFF0C2071224DB22EC
:10277E00AD07AC0690E679ECF0C2071224DB500BE5
:0D278E00EF90E679F0C2071224DB22C3228F
:1028A000C2061225F550041228C022ED120A64C394
:0128B0002205
:0C1F7D008F408C418D428B438A44894583
:101F8900C2061225F5400790E6787440F022AF4268
:101F9900AE4112277E1228C0D206AF401225F54065
:101FA9000790E6787440F022AB43AA44A9457D0125
:0C1FB9007C00121A9C92051228C0A205A0
:011FC50022F9
:082424008F338C348D358B36AB
:10242C00C2061225F5400790E6787440F022AF35CD
:10243C00AE3412277EAF3612291692011228C0AF85
:06244C0033122857A20123
:012452002267
:0A200F008F388C398D3A8A3B8B3CE8
:10201900D204300434E53C453B602EAB3DAA3EA9D1
:102029003FAD3AAC39AF38121F7D9204E53C153CFF
:102039007002153B053AE53A700205397401253FEE
:0B204900F53FE4353EF53E80C9A204DF
:012054002269
:0A1F33008F2B8C2C8D2D8A2E8B2F06
:101F3D00D200300038E52F452E6032AB30AA31A9E2
:101F4D0032120A4BFBAD2DAC2CAF2B122424920078
:101F5D00E52F152F7002152E052DE52D7002052C80
:0F1F6D0074012532F532E43531F53180C5A2001B
:011F7C002242
:10228D008F38C2061225F5400790E6787440F0228B
:10229D007FAC1229167F021229161228C0C206AF72
:1022AD00381225F5400790E6787440F0227F5112E0
:0722BD0029161228C0D322EC
:1021DF008F278B288A29892AC2061225F540079056
:1021EF00E6787440F0227FAA122916D206AF271282
:1021FF0025F5400790E6787440F022AB28AA29A96C
:0D220F002A7D027C00121A9C1228C0D322E6
:042121008F118D127B
:10212500E51275F003A42404FD12263F9211E51271
:1021350075F003A42405FDAB16AA15AF1112263FB1
:1021450072119211E51275F003A42406FDAB18AACD
:0C21550017AF1112263F72119211A21157
:01216100225B
:061FC6008B1A8A1B891C26
:101FCC007B007A007996753600753702E4FD122194
:101FDC006292127896E6540FFF08E6AB1AAA1BA978
:101FEC001CCF8FF0120B3AE51E451F451D601118D2
:101FFC00E6547008C4540FAB1DAA1EA91F120A8602
:02200C00A2121E
:01200E0022AF
:1026E5008D388B39C2061225F5400790E67874407F
:1026F500F022AF38122916AF391229161228C02236
:10263F008D388A398B3AC2061225F5400790E67815
:10264F007440F022AF38122916AF3AAE3912277EF6
:04265F001228C0225B
:102162008F318D328B338A348935C2061225F54080
:102172000790E6787440F022AF32122916D206AFE9
:10218200311225F5400790E6787440F022AB33AA6D
:0F21920034A935AD37AC36121A9C1228C0D322AF
:08293C007B047D021226E52256
:0A1BE7008F2C8D2D8B2E8A2F893054
:101BF1007B007A0079507536007537017D0212211C
:101C0100629201E52F4530452E600E7850E654F082
:101C1100AB2EAA2FA930120A867850E6540FF6E5AA
:101C21002D54F046F6E6FB7D02AF2C1226E572013B
:041C31009201A20179
:011C3500228C
:0A12F5008F278D288B298A2A892B68
:1012FF007B007A00794FE4FD121BE79200E528543A
:10130F00F0FDAB29AA2AA92B753600753708AF2730
:10131F0012216272009200AB29AA2AA92B120B0F7D
:10132F00FFE5F0540F8FF0120B3AAB29E52B240297
:10133F00F9E4352AFA120B0FFFE5F0540F8FF01274
:10134F000B3AAB29E52B2404F9E4352AFA120B0FDB
:10135F00FFE5F0540F8FF0120B3AAB29E52B240663
:10136F00F9E4352AFA120B0FFFE5F0540F8FF01244
:10137F000B3A784FE6FD7B007A007900AF27121BFE
:07138F00E772009200A200CA
:011396002234
:0A2921007B047A007D0212263F229B
:0C1777008F2B8C2C8D2D8B2E8A2F89300F
:101783007B007A0079517536007537027D0212218C
:10179300629201E52F4530452E60167851E6540FCD
:1017A300FF08E654F0AB2EAA2FA930CF8FF0120B0F
:1017B3003A7851E654F0F608E6540FF6E52C540F48
:1017C300FEE52D54F0FF18E64EF608E64FF618E650
:1017D300FA08E6FB7D02AF2B12263F72019201A2AB
:0117E3000104
:0117E40022E2
:080EC6008F278B288A29892A55
:100ECE007B007A00794F1217779200AB28AA29A9D6
:100EDE002A7536007537107D70AF271221627200A9
:100EEE009200AB28AA29A92A120B0FFFE5F0540F86
:100EFE008FF0120B3AAB28E52A2402F9E43529FAD1
:100F0E00120B0FFFE5F0540F8FF0120B3AAB28E5E2
:100F1E002A2404F9E43529FA120B0FFFE5F0540FD9
:100F2E008FF0120B3AAB28E52A2406F9E43529FA9C
:100F3E00120B0FFFE5F0540F8FF0120B3AAB28E5B2
:100F4E002A2408F9E43529FA120B0FFFE5F0540FA5
:100F5E008FF0120B3AAB28E52A240AF9E43529FA68
:100F6E00120B0FFFE5F0540F8FF0120B3AAB28E582
:100F7E002A240CF9E43529FA120B0FFFE5F0540F71
:100F8E008FF0120B3AAB28E52A240EF9E43529FA34
:100F9E00120B0FFFE5F0540F8FF0120B3A784FE65D
:100FAE00FC08E6FD7B007A007900AF2712177772F6
:050FBE00009200A200FA
:010FC300220B
:0A1CD2008E388F398D3A8A3B8B3C27
:101CDC00E5397802CEC313CE13D8F9FF7870F6AE7F
:101CEC0039EEC4333354C008F6C2061225F540074A
:101CFC0090E6787440F022E53A25E05406FF7871BE
:101D0C00E644104FFF122916AF3CAE3B12277E1251
:031D1C0028C0D309
:011D1F0022A1
:102760008C4C8D4DC2061225F5400790E6787440DA
:0E277000F022AF4DAE4C12277E1228C0D322AD
:0400C60048004100AD
:0400BE001225802265
:102580007BFF7A0079C67870120BA37B007A007902
:10259000007873120BA37A0079701219E8920490F4
:0725A000E6787440F0A2048C
:0125A7002211
:102684007528437529488D2A8B2B752C0D7B007A70
:102694000079281222C4920090E6787440F0A200D7
:0126A4002213
:06221C008B298A2A892BA0
:102222007BFF7A0079C8784F120BA3AB29AA2AA99F
:102232002B7852120BA37B007A0079007855120B8F
:10224200A37A00794F1219E8920090E6787440F070
:02225200A200E8
:012254002267
:10252F008B298A2A892BD2061225F5400790E67847
:10253F007440F0227F017E001200D6AB29AA2AA98F
:09254F002B7D017C00121A9C2274
:0619E8008B388A39893AB0
:1019EE00C2061225F5400790E6787440F022AB3817
:1019FE00AA39A93A120BB8EA494B6035AB38AA3965
:101A0E00A93A120BB87876120BA37876120B8A12BB
:101A1E000A4BFF600F1229167878740126F618E427
:101A2E0036F680E67403253AF53AE43539F5398011
:051A3E00BD1228C0D319
:011A43002280
:1022C4008B2D8A2E892FC2061225F5400790E678B9
:1022D4007440F022AB2DAA2EA92F120A4BFF6010D6
:1022E4001229167401252FF52FE4352EF52E80E4DE
:0522F4001228C0D322F6
:05282700C113014E0089
:10236000C213EF244E601424D9601024F3600C24AF
:10237000FA600824F96004248F7015438E10758963
:1023800020438780758BFF8F8D759852D28ED21324
:03239000A2132273
:1000D60078707603087620EF1FAC0670011E4C6020
:1000E6001878707603087620787008E61618860465
:0900F6007001164C60E10080EF7E
:0100FF0022DE
:030000000215E105
:0C15E100787FE4F6D8FD7581970216288B
:100A4B00BB010689828A83E0225002E722BBFE02A9
:090A5B00E32289828A83E49322DC
:100A6400BB010989828A83F8E028F022500327F722
:100A740022BBFE05F8E328F3228A838982F8E493F3
:020A8400282226
:100A8600BB010689828A83F0225002F722BBFE014F
:020A9600F32249
:100A9800F8BB010DE58229F582E5833AF583E8F094
:100AA800225006E92582C8F622BBFE05E92582C840
:020AB800F22228
:100ABA00BC000BBE0029EF8DF084FFADF022E4CC20
:100ACA00F875F008EF2FFFEE33FEEC33FCEE9DECE9
:100ADA00984005FCEE9DFE0FD5F0E9E4CEFD22ED2F
:100AEA00F8F5F0EE8420D21CFEADF075F008EF2F79
:100AFA00FFED33FD4007985006D5F0F222C398FD6A
:050B0A000FD5F0EA2206
:100B0F00BB010A89828A83E0F5F0A3E022500687B1
:100B1F00F009E71922BBFE07E3F5F009E319228973
:0B0B2F00828A83E493F5F074019322A6
:100B3A00BB010A89828A83F0E5F0A3F0225006F706
:0F0B4A0009A7F01922BBFE06F3E5F009F3192203
:100B5900A8828583F0D083D082120B70120B701299
:100B69000B70120B70E473E493A3C583C5F0C583BE
:100B7900C8C582C8F0A3C583C5F0C583C8C582C8E6
:010B89002249
:090B8A00E6FB08E6FA08E6F92290
:100B9300FAE6FB0808E6F925F0F618E6CA3AF62263
:090BA300EBF608EAF608E9F62277
:0C0BAC00E493FB740193FA740293F922A5
:100BB800BB010789828A83020C315005E9F8020BD0
:100BC8008ABBFE05E9F8020C3A89828A83020BACDB
:100BD800D083D082F8E4937012740193700DA3A3AC
:100BE80093F8740193F5828883E4737402936860C0
:060BF800EFA3A3A380DFC0
:060BFE008A838982E47382
:1001B800E547243BF8E60547227838300B02783BC0
:1001C800E475F001120B93020A4B2004EB7F2ED248
:1001D800048018EF540F2490D43440D4FF30080B17
:1001E800EF24BFB41A0050032461FFE548600215EC
:1001F80048054BE54B7002054A300B0D7838E4751D
:10020800F001120B93EF020A860225A87403D20BA1
:100218008003E4C20BF5478B388A39893AE4F548FC
:10022800F54AF54BE54860077F201201F380F57524
:1002380049FFC205C204C206C207C209C20AC20CEB
:100248001201C1FF700D300B057F00120204AF4B85
:10025800AE4A22B4255FC2D5C2081201C1FF24D01C
:10026800B40A00501A75F00A784830D50508B6FF68
:100278000106C6A426F620D5047002D20780D92428
:10028800CFB41A00EF5004C2E5D208020404D20524
:1002980080C6D20480C0D20680BCD2D580BAD2092A
:1002A80080B47F201201F32006077401B54800408E
:1002B800F11201B8FF1201F302022CD20CD20A800B
:1002C800951201B8FB1201B8FA1201B8F94A4B703D
:1002D8000679D57A047BFF20062EE548602A7E0041
:1002E8008E82758300120C0460060EEE654970F06C
:1002F800C2D5EBC0E0EAC0E0E9C0E0EE12044BD0A2
:10030800E0F9D0E0FAD0E0FB120A4BFF60AAEBC09C
:10031800E0EAC0E0E9C0E01201F3D0E02401F9D03E
:10032800E03400FAD0E0FBE5490460DCD549D98027
:10033800877BFF7A047947D206809C7910800279FE
:1003480008C20AC20C8008D2D5790A8004790AC288
:10035800D5E549047002F549E4FAFDFEFF1201B83B
:10036800FC7B082005131201B8FD7B1030040A122B
:1003780001B8FE1201B8FF7B20EC3382D592D5502C
:1003880013C3E43004069FFFE49EFEE42005039DAA
:10039800FDE49CFCE4CBF8C205EC700CCFCECDCCD0
:1003A800E824F8F870F38017C3EF33FFEE33FEED5F
:1003B80033FDEC33FCEB33FB994002FB0FD8E9EB40
:1003C800300505F8D0E0C448B205C0E00AEC4D4E4F
:1003D8004F78207B0070C2EAB5490040BCC0E012EB
:1003E800044DD0F0D0E0200504C4C0E0C4B205C07C
:1003F800F01201DCD0F0D5F0EB02022C120BD8027F
:10040800C953034358029A4C02964203474F034F7D
:0F04180044034F4902AF43035555033946033997
:100427004503394704F550029E2D02A22E02C52B23
:1004370002A62302C32004DE2A025E48000002BD92
:100447003F3F3F00790AA2D5200714300909B910A8
:10045700020404B9080104A2D5200A0250010420AD
:1004670006689206B548005034C0E07F203007196F
:100477007F30A206720A7209500F1204A4C206C284
:100487000AC209C20C7F30800F300903E9C0E012AD
:1004970001F3300903D0E0F9D0E0B548CC300917B3
:1004A7007F30B9100C1201F37F583008077F78802E
:1004B70003B908031201F33006057F2D0201F37F0C
:1004C70020200CF87F2B200AF322920680CF286E7B
:1004D700756C6C2900D2051201B83005F8C2057891
:1004E7004830D50108F602025E2D504349581201E3
:1004F700B82403B405004001E49004F0931201E42A
:0D050700743A1201E4D20775480402034360
:1015ED00021A44E493A3F8E493A34003F68001F2B6
:1015FD0008DFF48029E493A3F85407240CC8C333FF
:10160D00C4540F4420C8834004F456800146F6DFCD
:10161D00E4800B0102040810204080902816E47E1F
:10162D00019360BCA3FF543F30E509541FFEE493C2
:10163D00A360010ECF54C025E060A840B8E493A389
:10164D00FAE493A3F8E493A3C8C582C8CAC583CAB4
:10165D00F0A3C8C582C8CAC583CADFE9DEE780BE6C
:01282C0000AB
:100C0400BB010CE58229F582E5833AF583E02250A5
:100C140006E92582F8E622BBFE06E92582F8E222EF
:0D0C2400E58229F582E5833AF583E4932209
:090C3100E0FBA3E0FAA3E0F922C4
:090C3A00E2FB08E2FA08E2F922EB
:1025A800EFB40A07740D1225B3740A309811A8996C
:1025B800B8130CC2983098FDA899C298B811F63093
:0725C80099FDC299F599226B
:00000001FF
